:020000040800F2
:10000000A8E901209902000841270008DB16000832
:100010003D2700080F0C00089B5B00080000000053
:10002000000000000000000000000000074A000877
:100030008D11000800000000312C00085D4B000805
:10004000B3020008B3020008B3020008B3020008BC
:10005000B3020008B302000819120008B302000836
:10006000B3020008B3020008B3020008B30200089C
:10007000B3020008B3020008B3020008B30200088C
:100080004D0E0008B3020008B3020008B3020008D6
:10009000B3020008B3020008B3020008B30200086C
:1000A000B3020008B3020008B3020008B30200085C
:1000B000B3020008B3020008154D0008B30200089F
:1000C000B3020008B3020008B3020008B30200083C
:1000D000B3020008155600087D590008B302000855
:1000E000B3020008B3020008B3020008B30200081C
:1000F000B3020008B3020008B3020008B30200080C
:10010000B3020008C52F0008B3020008B3020008BC
:10011000B3020008B3020008B3020008B3020008EB
:10012000B3020008B3020008B3020008B3020008DB
:10013000B3020008B3020008B3020008B3020008CB
:10014000B3020008B3020008B3020008B3020008BB
:10015000B3020008B3020008B3020008B3020008AB
:10016000B3020008B3020008B3020008B30200089B
:10017000B3020008B3020008B3020008B30200088B
:10018000B3020008B302000800F002F800F06DF8B6
:100190000AA090E8000C82448344AAF10107DA45E2
:1001A00001D100F062F8AFF2090EBAE80F0013F0C7
:1001B000010F18BFFB1A43F00103184738F2000083
:1001C00058F200000A444FF0000C10F8013B13F005
:1001D000070408BF10F8014B1D1108BF10F8015BA0
:1001E000641E05D010F8016B641E01F8016BF9D193
:1001F00013F0080F1EBF10F8014BAD1C0C1B09D1EA
:100200006D1E58BF01F801CBFAD505E014F8016B5B
:1002100001F8016B6D1EF9D59142D6D370470000ED
:100220000023002400250026103A28BF78C1FBD8FF
:10023000520728BF30C148BF0B607047642900F0E7
:10024000CD80752900F0CA80782900F003816329E8
:1002500000F01383732900F01883002070471FB546
:100260000DF094FB1FBD10B510BD00F073FB1146DF
:10027000FFF7F5FF0CF08CF900F091FB03B4FFF7EA
:10028000F2FF03BC06F097FA30BF72B6704762B651
:10029000704780F30888704709488047094800473D
:1002A000FEE7FEE7FEE7FEE7FEE7FEE7FEE7FEE726
:1002B000FEE7FEE704480549054A064B7047000083
:1002C000BD4B000889010008A8E30120A8E901202E
:1002D000A8E50120A8E50120704710B54C1084EA7C
:1002E000530404D54042C1F1000138BF491E1B42EE
:1002F00004D55242C3F1000338BF5B1E00F0E3F99E
:1003000014F0804F04D04042C1F1000138BF491EB3
:1003100014F0004F04D05242C3F1000338BF5B1EFB
:1003200010BD00000FB4044910B503AA029800F0F4
:10033000B1FA10BC5DF814FBB800002070B504469B
:1003400085690068C10601D5302600E02026C00777
:1003500007D070BDD4E9012130469047206A401C87
:1003600020626D1EF6D570BD70B5044685690078B3
:10037000C00707D170BDD4E9012120209047206A31
:10038000401C20626D1EF6D570BD70B50C4605464A
:10039000012A05D02878800600D5EA69002302E00A
:1003A000012305E05B1C934202D2E05C0028F9D1F6
:1003B000A869E618C01AA861286A18442862284665
:1003C000FFF7BCFF04E0D5E9012114F8010B9047C9
:1003D000B442F8D32846FFF7C7FF70BD2DE9F041BE
:1003E0000646002410687529314616A510D0AFF3D3
:1003F0000080002802DA404213A507E031688A072E
:1004000001D512A502E0490704D511A5012401E098
:10041000AFF3008000210A2206F1240709E0B0FBB7
:10042000F2FCB0FBF2F302FB1C00303078541846AB
:10043000491C0028F3D123462A463046BDE8F04146
:1004400000F0B8B9000000002D0000002B000000F3
:100450002000000070B504460D4621461068AFF339
:1004600000802188090502D50F4A7A4402E00E4A2D
:100470007A440E32002104F1240305E000F00F0657
:100480000009965D5E54491C0028F7D120780023AE
:10049000000704D5702D02D009B102231132204685
:1004A000BDE8704000F086B97AED00002DE9F05FFC
:1004B000894604464FF0000ADFF874B1FB44C0F8E7
:1004C00020A02046E1688847002874D0252806D05F
:1004D000D4E901219047206A401C2062F1E7002600
:1004E0005F462046E16888472028054607DB312D16
:1004F00005D2781910F8200C08B10643F1E7B007CF
:1005000001D526F00406C4F81CA00027C4F818A0E2
:100510002A2D09D0284606F047F938B304EB87089E
:10052000303DC8F8185019E059F8041B204604EB78
:1005300087029161E1688847012F054618D1E0697B
:10054000002820DA26F020061DE0D8F8180000EB7D
:10055000800005EB40003038C8F818002046E168FC
:100560008847054606F020F90028EED1012F0AD071
:100570002E2D08D12046E16888477F1C0546022FB2
:1005800046F02006C4DBA069002803DA404246F0AA
:100590000106A061F00701D026F010066C2D0BD0EB
:1005A000682D09D04C2D39D06A2D35D0742D35D019
:1005B0007A2D33D016E038E0E1682F462046884790
:1005C000B842054609D16C2F26D04FF48060E1680F
:1005D000064320468847054604E06C2F1AD04FF4A6
:1005E000807006430DB3A5F14100192802D82035CB
:1005F00046F400664A462946204626604E46FFF7E6
:100600001DFE80B101280BD0F61D26F0070000F179
:10061000080956E74020E4E78020D8E70020D6E725
:1006200006F104094DE7284652E7206ABDE8F09F2D
:1006300050ED0000032A40F2308010F0030C00F06F
:10064000158011F8013BBCF1020F624498BF11F80C
:1006500001CB00F8013B38BF11F8013BA2F10402C5
:1006600098BF00F801CB38BF00F8013B11F003033D
:1006700000F02281083AC0F0088051F8043B083AA3
:1006800051F804CBA0E80810F5E7121D5CBF51F843
:10069000043B40F8043BAFF30080D20724BF11F8BD
:1006A000013B11F801CB48BF11F8012B24BF00F822
:1006B000013B00F801CB48BF00F8012B70477047A1
:1006C00070477047704753EA020C00F069802DE9CB
:1006D000F04B4FF00006002B1FBFB3FA83F503FA6F
:1006E00005F424FA05F65E4012BF1643B2FA82F50D
:1006F00002FA05F4C5F120051EBF22FA05FC44EA02
:100700000C04203556EA044C4FEA144418BF641C0C
:100710004FF000084FF00009904271EB030C39D301
:10072000002919BFB1FA81F701FA07F6B0FA80F78C
:1007300000FA07F6C7F120071EBF20FA07FC46EAB9
:100740000C062037B6FBF4FCA7EB0507103F07F0BB
:100750001F0BCBF120060CFA0BFB2CFA06F644BF5C
:10076000B3460026202FA4BF5E464FF0000B5BEA85
:10077000060C08BF4FF0010B19EB0B09ABFB027C19
:1007800048EB0608C01B06FB02CC0BFB03CC71EB4D
:100790000C01C1E70B46024641464846BDE8F08BD6
:1007A00013B54FF000004FF00001AFF30080BDE83B
:1007B0001C4070472DE9F0470D4699469246044685
:1007C00000F124080168880604D5E06921F01001D1
:1007D000216000E00120A84201DD471B00E0002766
:1007E000A1697A1902EB0900081AA0612078C006F5
:1007F00002D42046FFF7A2FD002608E0D4E901213B
:100800001AF806009047206A401C761C20624E456C
:10081000F4DB2078C0060AD52046FFF78FFD06E0FE
:10082000D4E9012130209047206A401C2062381E04
:10083000A7F10107F4DC07E0D4E9012118F805006D
:100840009047206A401C2062281EA5F10105F3DCB8
:100850002046FFF789FD2078000602D50220BDE87A
:10086000F0870120FBE710B5436913B1AFF30080B7
:1008700001E0FFF78AFD012010BD127800F124018C
:100880000A7000224A700122EDE711684FF0FF3232
:10089000E9E70000074B70B50D467B4400F043F8D4
:1008A0000446284600F052F810B14FF0FF3070BDFA
:1008B000204670BD63A5000010B5203AC0F00B8043
:1008C000B1E81850203AA0E81850B1E81850A0E854
:1008D0001850BFF4F5AF5FEA027C24BFB1E81850AE
:1008E000A0E8185044BF18C918C0BDE810405FEA1E
:1008F000827C24BF51F8043B40F8043B08BF70479A
:10090000D20728BF31F8023B48BF11F8012B28BF9E
:1009100020F8023B48BF00F8012B704701694A1CD0
:1009200002610878704700B58FB0CDE90131002130
:10093000059105497944CDE9031011466846FFF752
:10094000B5FD0FB000BD0000E5FFFFFF007B00F02C
:1009500080007047754600F029F8AE4605006946EC
:10096000534620F00700854618B020B5FFF7A2FCDB
:10097000BDE820404FF000064FF000074FF00008A0
:100980004FF0000B21F00701AC46ACE8C009ACE821
:10099000C009ACE8C009ACE8C0098D467047044600
:1009A000AFF300802046FFF769FC00000048704765
:1009B00044E3012021B1826842F00102826003E039
:1009C000826822F001028260704700000021084A1C
:1009D0001168084A1140D0E900231A4383681A437A
:1009E000C3681A431143044AC2F804137047000055
:1009F00004230140E030FCFF002001400146C86CA8
:100A000080B270470246002013680B400BB10120F2
:100A100000E000207047000030B5024600200023AF
:100A20005068104C20400D790C6844EA052420439E
:100A3000506090680C4C2040D1E903542C438D68E1
:100A40002C434D7944EA450420439060D06A20F459
:100A500070000C7D641EE4B2234340EA0350D06270
:100A600030BD0000FFFEFFFCFDF7FFC0F0B50446FF
:100A70000D4600200021092D11DDE068A5F10A06D0
:100A800006EB4607072606FA07F18843A5F10A0692
:100A900006EB460603FA06F10843E0600CE0206925
:100AA00005EB4507072606FA07F1884305EB4506DF
:100AB00003FA06F108432061072A0FDA606B561E1D
:100AC00006EB86071F2606FA07F18843561E06EB3B
:100AD000860605FA06F10843606322E00D2A0FDA64
:100AE000206BD61F06EB86071F2606FA07F1884300
:100AF000D61F06EB860605FA06F10843206310E0D0
:100B0000E06AA2F10D0606EB86071F2606FA07F13A
:100B10008843A2F10D0606EB860605FA06F10843A6
:100B2000E062F0BD816841F0804181607047000063
:100B300000B58DB00121084602F07CF801210802C1
:100B400002F0C8F802200B9003208DF8300000203E
:100B50008DF833000BA9154800F018FD012108029B
:100B600002F0C8F800214FF4807002F0C3F80020B2
:100B700007900A9009904FF48030089007A8FFF77B
:100B800025FF002001908DF808008DF809000390E2
:100B9000059001208DF8180001A90548FFF73CFFDA
:100BA00001210348FFF706FF0DB000BD0000024021
:100BB00000200140F0B504460E4615461F4636207B
:100BC00001F05EFDB0B201F053FD372001F058FD99
:100BD000A0B201F04DFD382001F052FDB8B201F095
:100BE00047FD392001F04CFDA8B201F041FD202065
:100BF00001F046FDA0B201F03BFD212001F040FDD7
:100C0000A8B201F035FD222001F03AFDF0BD00BF91
:100C1000FEE7000070B50025002413E00A480068D4
:100C200018B1681CC5B2002405E0601CC4B2032CD6
:100C300001DD002070BD1E2009F0ECFE642D01DBFB
:100C40000120F7E7EAE700000002404270B5002506
:100C50004FF4803404E0802002F0A0F900B103E0FA
:100C60002000A4F10104F6D100BF0CB9032070BD2F
:100C700040F2FF5002F068F92846F8E770B50446E4
:100C800005E01648056805F0450000B100E0F8E70A
:100C900000BF042002F082F920B1042002F054F9D0
:100CA000032070BD012002F079F920B1012002F08B
:100CB0004BF90120F5E7094824380068A04201D02B
:100CC0001020EEE740F2FF5002F03EF903482038D2
:100CD000006808210840C0B2E3E70000342C01405E
:100CE00070B500264FF4803505E01148046804F023
:100CF000450000B103E02800A5F10105F5D100BFD2
:100D000015B104F0040028B10326042002F01CF9F8
:100D1000304670BD012002F041F918B101260120D2
:100D200002F012F940F2FF5002F00EF93046F0E7FF
:100D3000342C014010B505E00B48046804F0450070
:100D400000B100E0F8E700BF042002F027F920B16D
:100D5000042002F0F9F8032010BD40F2FF5002F029
:100D6000F3F80020F8E70000342C01402DE9F041B1
:100D700005460E464FF0000805E02048076807F0DA
:100D8000450000B100E0F8E700BF042002F006F9DA
:100D900028B1042002F0D8F80320BDE8F08101203A
:100DA00002F0FCF820B1012002F0CEF80120F4E7B7
:100DB000124824380068A84201D01020EDE740F224
:100DC000FF5002F0C1F80D482038046804F4604078
:100DD00018B9200C30804046DFE704F4005008B119
:100DE0001320DAE704F4804008B11020D5E704F4BA
:100DF000004008B10F20D0E74046CEE7342C014038
:100E000070B500264FF4803505E00F48046804F003
:100E1000450000B103E02800A5F10105F5D100BFB0
:100E200015B104F0040028B10326042002F08CF868
:100E3000304670BD04F0400018B10026402002F09A
:100E400083F83046F5E70000342C014010B507491F
:100E5000074800F00FF9012806D10449044800F0C2
:100E60000BF804480068804710BD0000008800208F
:100E700088600240200000200246094B9A4201D2BD
:100E8000084801E00648103801F000531BB1064B3A
:100E90000B40C36002E0044B0B40836070470000CE
:100EA00010640240006002407D0F7D0F21B1026896
:100EB00042F00102026003E0026822F001020260D7
:100EC00070470000016821F001010160002101600C
:100ED00041608160C1600161212141614A498842CC
:100EE00004D13D21484A103A91608CE046491831BE
:100EF000884205D14FF47461434A103A916082E010
:100F000041493031884205D14FF474113E4A103ABC
:100F1000916078E03C494831884205D14FF07461D6
:100F2000394A103A91606EE037496031884204D105
:100F30003649354A103AD16065E033497831884204
:100F400004D13349304A103AD1605CE02E499031E7
:100F5000884204D12F492C4A103AD16053E02A49E3
:100F6000A831884205D14FF03D51274A103AD1604F
:100F700049E02949884204D13D21274A083A1160B5
:100F800041E025491831884205D14FF47461224A65
:100F9000083A116037E020493031884205D14FF4DA
:100FA00074111D4A083A11602DE01B4948318842EE
:100FB00005D14FF07461184A083A116023E01649D0
:100FC0006031884204D11149134A121F11601AE09E
:100FD00011497831884204D10D490F4A121F11601E
:100FE00011E00D499031884204D10A490A4A121F82
:100FF000116008E00849A831884204D14FF03D5102
:10100000054A121F11607047106002403D00002029
:10101000400F002000003D201064024021B1026812
:1010200042F48022026003E0026822F4802202601F
:10103000704722B1036843F40023036003E00368B0
:1010400023F4002303600161704721B1026842F07C
:101050002002026003E0026822F020020260704772
:10106000014600200A6802F001020AB1012000E0F6
:101070000020704770B50246002000240025124E63
:10108000B24201D2114B01E00F4B103B104E0E400B
:1010900036B11E2606EAD124166806EA040502E0E7
:1010A000566906F0800501F000560EB15C6800E05C
:1010B0001C68084E344004EA010616B10DB1012047
:1010C00000E0002070BD000010640240006002409B
:1010D0003C0F3C0F7D0F7D0F10B501F080034BB12D
:1010E00022B1436943F08003436103E0436923F085
:1010F0008003436180290BD02AB1036801F01E04EC
:101100002343036004E0036801F01E04A34303606B
:1011100010BD000010B500220268134B1A40CC68C5
:101120000B6823434C6923438C692343CC692343D5
:101130000C6A23434C6A23438C6A23434C6B23433E
:101140008C6B23431A430260426922F00702D1E903
:101150000B3423431A4342610B6943604B6883603D
:101160008B68C36010BD00003F801CF00021064A60
:101170001160062005E00021034A42F82010411CBE
:10118000C8B21E28F7DB70478C02002070470000B1
:10119000F8B51E484388018800221046FFF70AFD73
:1011A00000252EE0002425E019490968194A8A1A09
:1011B00016490988694302EB41012144481C04F0A7
:1011C0008BFF064612490968124A8A1A0F49098894
:1011D000694302EB4101081904F07EFF06EB002091
:1011E00080B20090601C84B2BDF8000001F054FA97
:1011F000601C84B205480088B4EB400FD4DB681C47
:1012000085B202484088A842CCDCF8BDB00300207B
:101210001C0000208038010010B5012000F00EF8FD
:10122000FFF7F8FC012803D003480088FF2801DD00
:1012300003F096FC10BD0000140000200149086076
:1012400070470000143C0140002123498279002AA4
:101250003AD00A46126803689A430B461A600A1D80
:10126000126803689A430B1D1A60027911440A68D8
:1012700003681A430A60184A0832126803689A43DE
:10128000154B08331A601A1D126803689A43124BF3
:101290000C331A604279102A0ED11A1F12680368A3
:1012A0001A430D4B08331A601A1D126803681A435B
:1012B000094B0C331A600DE00749427911440A6862
:1012C00003681A430A6005E0027911440A6803685A
:1012D0009A430A6070470000003C014051B182000F
:1012E000A2F1C042126842F001038200A2F1C042A2
:1012F000136009E08200A2F1C0421268034B1A4059
:101300008300A3F1C0431A6070470000FEFF0F0086
:10131000D0E901121143C2681143026911434269C5
:10132000114382691143C2691143026A1143426A3F
:101330001143826A1143C26A1143026B114302686E
:101340009200A2F1C0421160816808290BD10168A6
:101350008900A1F1C041096841F04002016889009B
:10136000A1F1C0410A60416B0968426B526841EAD1
:101370000211426B926841EA0221426B928941EA72
:101380000241426B128A41EA0251426B127D41EAEC
:101390000261426B926911430268521C9200A2F1F1
:1013A000C0421160C16AB1F5804F1BD1816B0968E1
:1013B000826B526841EA0211826B926841EA022113
:1013C000826B128A41EA0251826B127D41EA02610C
:1013D000826B9269114302689200A2F1C042C2F886
:1013E000041107E06FF0704201688900A1F1C0416B
:1013F000C1F80421704700002DE9FC4107460D4665
:101400000026002400200090019008205B4908601D
:1014100010204860402088600020C8604FF4806041
:101420000861084601F006FE1020FFF727FC04467D
:1014300014B12046BDE8FC815148008800044F49A2
:10144000086037204860402088600020C8604FF462
:1014500080600861084601F0EDFD3720FFF70EFCC3
:1014600004460CB12046E5E74FF0FF3045490860DF
:1014700008204860302088600220C8600020086191
:1014800001204861084601F06FFD00203B490860DB
:1014900033204860402088600020C8604FF480609E
:1014A0000861084601F0C6FD3320FFF7E7FB04465C
:1014B0000CB12046BEE70CE04FF4001001F06EFDC9
:1014C00038B1314800684DF82600761C022E00D352
:1014D00007E02D484C38006840F22A610840002897
:1014E000EAD000BF082001F059FD20B1082001F02A
:1014F0002BFD04209EE7022001F050FD20B10220C8
:1015000001F022FD022095E7202001F047FD20B1E7
:10151000202001F019FD06208CE74FF4007001F047
:101520003DFD28B14FF4007001F00EFD072081E76A
:1015300040F2FF5001F008FD00980006009901F408
:101540007F4140EA0120009901F47F0140EA112027
:10155000009940EA1160686001980006019901F461
:101560007F4140EA0120019901F47F0140EA112006
:10157000019940EA1160286020465BE7E8030020FB
:1015800028000020FC030020802C0140F0B50A4612
:1015900000210023002400BF3DE0012505FA01F3EE
:1015A000156805EA03049C4234D105684F00032600
:1015B000BE40B543056015794E00B5400668354319
:1015C00005601579012D02D01579022D16D1856897
:1015D0004F000326BE40B543856055794E00B540A7
:1015E000866835438560456801268E40B543456071
:1015F000456896798E40B6B235434560C5684F0060
:101600000326BE40B543C560D5794E00B540C668D7
:101610003543C560491C1029BFD3F0BDF0B5002388
:1016200000244D07ED0E02FA05F3CE1000F120055F
:1016300055F826504E07F70E0F26BE40B543CF1083
:1016400000F1200646F82750CE1000F1200555F88D
:10165000265045EA0304CE1000F1200545F8264047
:10166000F0BD0246002013690B400BB1012000E0E1
:1016700000207047418370470183704710B50446CE
:101680000723012221460848FFF7F0F90648FFF733
:1016900049FA00BF02210448FFF7B4F90028F9D045
:1016A0000148FFF7ABF910BD002001402DE9F041E2
:1016B00007460C460025002608E03846FFF7DEFF07
:1016C0000544052009F0A6F9701CC6B2A642F4DB59
:1016D000B5FBF4F080B2BDE8F08100BFFEE700008A
:1016E0002DE9FF4104460F4615461E460121C80359
:1016F00001F0D0FA0121C80301F0DCFA00214FF417
:10170000004001F0D7FAADF80070ADF80240ADF836
:1017100004600020ADF8060002200290ADF80C50E5
:101720006946074800F0C2F801220221044803F08C
:1017300035F90121024800F0ADF8BDE8FF81000055
:10174000003C004070B5002400252248007858B9BC
:101750002148007840B92148007828B9204800780D
:10176000012801D1052400E00324002001F046FBFC
:101770000B2C01D1012070BD04EB8402194B03EB4B
:101780004202918804EB840203EB4202508801F08C
:101790003BFB1548006840F080601349086000BFBB
:1017A0001148006800F000600028F9D004EB8400C4
:1017B0000C4901EB4000C58804EB840001EB4000BC
:1017C000008945EA002545F4007508490D80002090
:1017D000D1E7000011000020B70000200E0000201B
:1017E0008802002056F1000800380240203C0040EA
:1017F00070B590B004460E4615460121480501F02B
:1018000019FA2248FFF75EFB00BF2048FFF728FCCB
:101810000028FAD100901E480190029440200390C5
:101820000495002005904FF48060069040000790DA
:10183000800008904011099040020A9000200B900F
:101840000C900D900E9069461048FFF763FC002243
:1018500031460E48FFF7EDFB01210C48FFF7DEFB98
:10186000012210210948FFF737FC10208DF83C00B9
:1018700000208DF83D008DF83E0001208DF83F00DE
:101880000FA800F05FFF10B070BD0000886002403C
:101890000C3C004021B1828B42F48062828304E0E0
:1018A000828B4FF6FF331A40828370472DE9F04F49
:1018B0000025022300244FF0010900220026002702
:1018C00094469046B0F81CA04FF2400B0AEA0B0A6F
:1018D000A0F81CA04FF0020AA0F820A0858BD1F838
:1018E00008A0BAF1020F01D100BF82E0B1F804A054
:1018F000BAF1000F02D14FF0010901E04FF00209E7
:10190000DFF834A1DAF800A00AF4000ABAF1000FF7
:1019100009D0DFF824A1DAF800A02AF4000ADFF8E1
:1019200018B1CBF800A0DFF810A10AF17C0ADAF8B0
:1019300000A0CAF3881CDFF800A10AF17C0ADAF8DB
:1019400000A0CAF30278DFF8F0A0AAF1040ADAF8DE
:1019500000A00AF03F07DFF8E0A0AAF1040ADAF8D5
:1019600000A00AF4800ABAF5800F08D1DFF8CCA0F5
:10197000BAFBF7FA0AFB0CFABAFBF8F607E0DFF855
:10198000C0A0BAFBF7FA0AFB0CFABAFBF8F6B1F8FA
:1019900006A0BAF5007F0ED14FEA162A0AEB8A0A92
:1019A0004FEA4A0AD1F808B0BAFBFBFA0AF1050A75
:1019B0001FFA8AF20FE04FEA491AB6FBFAFA0AEB6D
:1019C0008A0A4FEA4A0AD1F808B0BAFBFBFA0AF1D0
:1019D000050A1FFA8AF24FF00A0AB2FBFAF202F085
:1019E0000104A2EB040ACAF34F034FF6FF7A0AEA96
:1019F0000424022B01DBFF2B01DD02230024B1F8BC
:101A000006A04AEA040A4AEA030AA0F820A0B1F8AC
:101A100004A0B1F80CB04AEA0B0AB1F802B04AEAE5
:101A20000B0AB1F800B04AEA0B0A4AF4006A4AEA23
:101A300005058583BDE8F08F0838024000127A0062
:101A40000024F40010B501210148FFF72FFA10BD62
:101A50008860024010B500210148FFF727FA10BD49
:101A6000886002401CB50121022001F0E3F84FF428
:101A70004060009001208DF8040000208DF80600E1
:101A800003208DF8050001208DF807006946054800
:101A9000FFF77CFD0120044908600449C1F8AC024D
:101AA0001CBD000000040240A88240420080404269
:101AB00070B504461548006820F4400013490860DA
:101AC0000846006840F48000086000201049086063
:101AD000002517E0E0090E49091D08606006040EA4
:101AE000022008F0BDFF01200A49C1F8A802022027
:101AF00008F0B6FF002006490860022008F0B0FF99
:101B0000681CC5B2082DE5DB70BD00000004024072
:101B1000A88240420080404210B50F48006820F47F
:101B200040000D4908600846006840F480000860E5
:101B300001200A4908600A49C1F8A802042008F0F7
:101B40008FFF002005490860042008F089FF00206D
:101B50000349C1F8A80210BD00040240AC82404213
:101B60000080404210B50F48006820F440000D4945
:101B700008600846006840F48000086000200A49B8
:101B800008600A49C1F8AC02042008F069FF01208E
:101B9000054908600549C1F8AC02042008F060FF5F
:101BA00010BD000000040240A88240420080404274
:101BB00010B500241348006820F440001149086063
:101BC00008460068086001200F49086008F048FFD7
:101BD00001200E49C1F8A80208F042FF07E0601C8E
:101BE000C4B2FA2C03DDFFF7BDFF012010BD06488B
:101BF000803800680028F2D10349091F086000BF3F
:101C0000F4E7000000040240AC8240420080404201
:101C100010B54FF400410B48FFF72EFD1E2008F0D1
:101C2000F9FE4FF400410748FFF724FD322008F089
:101C3000F1FE4FF400410348FFF71EFD1E2008F09F
:101C4000E9FE10BD001002404CF6CC40014908608E
:101C5000704700000030004010B500F013F810BDD0
:101C600070B505460C4645F2555000F01FF8284661
:101C700000F010F8204600F013F800F003F8FFF72A
:101C8000E3FF70BD4AF6AA200149086070470000D2
:101C900000300040014948607047000000300040BB
:101CA0000149886070470000003000400149086029
:101CB00070470000003000401CB504460020019031
:101CC0000090224800880004214908600D204860E7
:101CD000402088600020C8604FF48060086108469A
:101CE00001F0A8F91B480068009002E0194800685C
:101CF0000090009800F045000028F7D0012001F086
:101D00004DF920B1012001F01FF901201CBD042074
:101D100001F044F920B1042001F016F90320F5E7A1
:101D20000C48243800680D2801D01020EEE740F25E
:101D3000FF5001F009F90748203800680190019828
:101D4000C0F3432020700020E0E7000028000020BE
:101D5000E8030020342C01401CB50121162000F0BE
:101D600069FF0320009000208DF8040003208DF807
:101D7000050001208DF8070069461148FFF706FCB1
:101D80003F20009000208DF8040003208DF805000E
:101D900001208DF8070069460A48FFF7F7FB40F677
:101DA0001F00009000208DF8040003208DF805002E
:101DB00001208DF8070069460348FFF7E7FB1CBDCB
:101DC0000004024000080240001002402DE9F047E4
:101DD00006460027B846144800883844401E1FFABB
:101DE00080F9114840884044401E1FFA80FA0E488E
:101DF0004388018800221046FEF7DCFE00240CE038
:101E0000002504E0304600F047FC681C85B2064817
:101E10000088A842F6DC601C84B203484088A042D7
:101E2000EEDCBDE8F0870000B003002070B59048FC
:101E30004388018800221046FEF7BCFE8C4840888B
:101E4000032190FBF1F086B200253DE0002405E07F
:101E50004FF4784000F020FC601C84B28448008875
:101E6000032190FBF1F0A042F2DC002405E04FF4E6
:101E7000FC6000F011FC601C84B27D4800880321E6
:101E800090FBF1F0A042F2DC002404E01F2000F0FF
:101E900003FC601C84B276480088032190FBF1F0BB
:101EA000A042F3DC002404E01F2000F0F5FB601CDE
:101EB00084B26F480088032190FBF1F201FB12000D
:101EC000A042F1DC681C85B2B542BFDB00253EE0D4
:101ED000002404E01F2000F0DFFB601C84B2644893
:101EE0000088032190FBF1F0A042F3DC002405E020
:101EF0004FF4784000F0D0FB601C84B25C4800884E
:101F0000032190FBF1F0A042F2DC002405E04FF445
:101F1000FC6000F0C1FB601C84B2554800880321BE
:101F200090FBF1F0A042F2DC002405E04FF4FC60ED
:101F300000F0B2FB601C84B24D480088032190FB86
:101F4000F1F201FB1200A042F0DC681C85B2B54240
:101F5000BEDB00253EE0002405E04FF4FC6000F00D
:101F60009BFB601C84B242480088032190FBF1F087
:101F7000A042F2DC002404E01F2000F08DFB601C76
:101F800084B23B480088032190FBF1F0A042F3DCCF
:101F9000002405E04FF4784000F07EFB601C84B222
:101FA00033480088032190FBF1F0A042F2DC0024CA
:101FB00005E04FF4784000F06FFB601C84B22C48C1
:101FC0000088032190FBF1F201FB1200A042F0DC3B
:101FD000681C85B2B542BEDB00253EE0002405E06A
:101FE0004FF4FC6000F058FB601C84B2204800886D
:101FF000032190FBF1F0A042F2DC002404E01F205A
:1020000000F04AFB601C84B219480088032190FB51
:10201000F1F0A042F3DC002405E04FF4784000F03A
:102020003BFB601C84B212480088032190FBF1F056
:10203000A042F2DC002405E04FF4784000F02CFBD5
:10204000601C84B20A480088032190FBF1F201FB76
:102050001200A042F0DC681C85B2054840880321CC
:1020600090FBF1F201FB1200A842B7DC70BD00004A
:10207000B003002070B505460E461446314628468A
:1020800000F002FA204600F007FB70BD00B5A1B0D9
:10209000002020900121084600F0ECFD01211920CC
:1020A00000F0C8FD00208DF87E0001208DF87F0033
:1020B00002208DF87C0003208DF87D004FF48040D5
:1020C0001E901EA9DE48FFF761FA0C220E21DC48A3
:1020D000FFF7A4FA4FF400401E901EA9D848FFF75E
:1020E00055FA0C220F21D648FFF798FA01201E90CE
:1020F0001EA9D348FFF74AFA0C220021D048FFF767
:102100008DFA02201E901EA9CD48FFF73FFA0C223F
:102110000121CB48FFF782FA80201E901EA9C948F2
:10212000FFF734FA0C220721C648FFF777FA4FF47D
:1021300080701E901EA9C348FFF728FA0C220821C0
:10214000C048FFF76BFA4FF400701E901EA9BD48FF
:10215000FFF71CFA0C220921BA48FFF75FFA4FF487
:1021600080601E901EA9B748FFF710FA0C220A21C2
:10217000B448FFF753FA10201E901EA9B048FFF78D
:1021800005FA0C220421AE48FFF748FA20201E90E1
:102190001EA9AB48FFF7FAF90C220521A848FFF762
:1021A0003DFA80201E901EA9A548FFF7EFF90C22EA
:1021B0000721A348FFF732FA4FF400601E901EA9D2
:1021C0009F48FFF7E3F90C220B219D48FFF726FA01
:1021D00001208DF87C0000208DF87E0001208DF814
:1021E0007F0002208DF87D0080031E901EA9954877
:1021F000FFF7CCF94FF480701E901EA99248FFF7AC
:10220000C5F94FF480719048FFF734FA0F20089019
:10221000002009903C200A9000200B900C900D901B
:102220000E900920019000200290082003900020C9
:1022300004900590069007900F90109011901290C6
:10224000139015901490169017904FF4805018909A
:10225000002019904FF480401A9000201B9008A88D
:102260001C9001A81D900FA8FFF752F80121002033
:10227000FFF734F8FFF7CCFC002000F001FA00F083
:10228000E7F872498880084680884FF6FF7101EAB6
:1022900000206E49888000F0DBF86C49898808438B
:1022A0006A498880FFF7B4FC00F0DEF80321D020F3
:1022B00000F0FAF94FF43061EB2000F0F5F90F214E
:1022C000EC2000F0F1F940F20F31C72000F0ECF9FA
:1022D0004FF48E71012000F0E7F94FF48071022075
:1022E00000F0E2F941F23001032000F0DDF940F6A0
:1022F0000801082000F0D8F90021092000F0D4F9E5
:1023000000210A2000F0D0F94FF488510B2000F092
:10231000CBF900210C2000F0C7F940F601110F2085
:1023200000F0C2F90021202000F0BEF90021212098
:1023300000F0BAF9842008F06DFB0021102000F0B5
:10234000B3F941F64131112000F0AEF942F20E012D
:10235000122000F0A9F96621132000F0A5F945F636
:102360006C41142000F0A0F92021152000F09CF908
:102370000021302000F098F9DB21312000F094F9A1
:102380000021322000F090F90021332000F08CF978
:10239000DB21342000F088F90021352000F084F999
:1023A000AF21362000F080F90021372000F07CF9C1
:1023B000DB21382000F078F90021392000F074F991
:1023C0000021502000F070F940F60221512000F069
:1023D0006BF940F60B61522000F066F94FF4006192
:1023E000532000F061F940F60C31542000F05CF904
:1023F00040F20A21552000F057F90021562000F044
:1024000053F90821572000F04FF90021582000F01F
:102410004BF90021592000F047F941F28A21EC20C4
:1024200000F042F941F21701072000F03DF92220A7
:1024300000F026F9842008F0EDFA21B000BD00007C
:10244000000C02400010024000000240B0030020D7
:1024500008B500200090034800780090BDF8000007
:1024600008BD000000000160002006498871B0200E
:102470000880DC204880202048812120888122207B
:1024800008817047B003002030B505460C46362061
:1024900000F0F6F8AF2000F0EBF8372000F0F0F88D
:1024A000284600F0E5F8382000F0EAF8DB2000F0DC
:1024B000DFF8392000F0E4F8204600F0D9F82020B9
:1024C00000F0DEF8284600F0D3F8212000F0D8F81C
:1024D000204600F0CDF8222000F0D2F830BD0000F8
:1024E0002DE9F84F80460E4617461C46B346204657
:1024F000E31704EB5373DB1021464FEAE47C04EB53
:102500005C7C4FEAEC0CA4EBCC0CBCF1000F02D0CD
:102510004FF0010C01E04FF0000C6344224604EB45
:10252000D27C4FEA6C0C03FB0CF3DBB20093A7F1F7
:102530002000C7B2002556E00C2C07D107EB47005E
:102540002B4901EB800010F8059013E0102C05D109
:10255000284800EB071010F805900BE0182C07D165
:1025600007EBC700244901EB800010F8059001E05B
:10257000BDE8F88F4FF0000A2FE009F0800030B17D
:102580001E48028831464046FFF774FD07E00A986E
:1025900028B91B48028831464046FFF76BFD4FEAD9
:1025A00049604FEA1069701C86B216484088B042F4
:1025B00000DCDDE7A6EB0B00A0420AD15E4608F185
:1025C00001001FFA80F80F480088404500DCCFE783
:1025D00006E00AF1010000F0FF0ABAF1080FCCDBB7
:1025E00000BF681CC5B200988542A5DB00BFBFE7ED
:1025F00096D900080ADE0008FAE300081800002057
:102600001A000020B00300202DE9F84704460D46CB
:1026100090469946DDE9096704F0FF0A08EB0400DB
:102620001FFA80F809EB05001FFA80F916E044450F
:1026300002DB5446A81985B24D4500DB14E00020AA
:1026400000903A78334629462046FFF749FF304646
:1026500006EBD07104EB61018CB27F1C38787E28C8
:1026600002DC38782028E2DA00BFBDE8F8870000F5
:102670000112024A117010707047000000000160E2
:1026800001B5BDF80000001202490870BDF8000055
:10269000087008BDFFFF00600112024A117010703F
:1026A00070470000000001600212044B1A7018709D
:1026B0000A125B1C1A70197070470000FFFF00605F
:1026C0001CB50121112000F0B5FA46F2400000903F
:1026D00001208DF8040000208DF8060003208DF8FD
:1026E000050001208DF8070069461248FEF74EFFED
:1026F0004FF4C0410F48FEF7BFFF40210D48FEF7E1
:10270000B9FF4FF40060009001208DF80400002014
:102710008DF8060003208DF8050001208DF80700D4
:1027200069460548FEF732FF4FF400610248FEF7A4
:10273000A1FF1CBD001002400000024000BFFEE7E8
:102740007047000070B5002100230F22C4781CB32D
:10275000174C246804F4E064C4F5E064C4F3072172
:10276000C1F10404E3B20A4144789C40E1B28478A8
:10277000144021430C07210E0E4C05786155047856
:1027800004F01F050124AC4005786D11AD0005F182
:10279000E025C5F8004109E0047804F01F05012494
:1027A000AC40054D0678761145F8264070BD000016
:1027B0000CED00E000E400E080E100E002490143AC
:1027C000024A1160704700000000FA050CED00E0BD
:1027D0001CB50FA010210A236422CDE9001050215E
:1027E0000020FFF711FF0CA010210A236422CDE97D
:1027F00000105F210020FFF707FF4FF4FA7108482F
:1028000002F00BFD4FF4FA71054802F008FD1CBD03
:10281000204F5554312000002E2E2E2E2E2E00003B
:10282000000800401CB50FA010210A236422CDE946
:10283000001050210020FFF7E7FE0CA010210A2312
:102840006422CDE900105F210020FFF7DDFE4FF488
:10285000FA71084802F0E1FC0021064802F0DFFCB2
:102860001CBD0000204F5554312000005B5D2F7CC3
:102870007B7D0000000800401CB50FA010210A233A
:102880006422CDE9001050210020FFF7BDFE0CA00E
:1028900010210A236422CDE900105F210020FFF7F8
:1028A000B3FE0021084802F0B8FC4FF4FA71064864
:1028B00002F0B5FC1CBD0000204F55543120000033
:1028C0005B5D2F7C7B7D0000000800401CB50FA0E5
:1028D00010210B466422CDE9001073210020FFF780
:1028E00093FE0CA010210B466422CDE9001082213A
:1028F0000020FFF789FE4FF4FA71084802F089FCC6
:102900004FF4FA71054802F086FC1CBD204F555467
:10291000322000002E2E2E2E2E2E0000000400400D
:102920001CB50FA010210B466422CDE900107321C5
:102930000020FFF769FE0CA010210B466422CDE9B0
:10294000001082210020FFF75FFE4FF4FA71084863
:1029500002F05FFC0021064802F05DFC1CBD000097
:10296000204F5554322000005B5D2F7C7B7D0000A2
:10297000000400401CB50FA010210B466422CDE9D5
:10298000001073210020FFF73FFE0CA010210B4622
:102990006422CDE9001082210020FFF735FE0021DE
:1029A000084802F036FC4FF4FA71064802F033FC96
:1029B0001CBD0000204F5554322000005B5D2F7C71
:1029C0007B7D0000000400401CB50FA010210B46C9
:1029D0006422CDE9001096210020FFF715FE0CA01F
:1029E00010210B466422CDE90010A5210020FFF73D
:1029F0000BFE4FF4FA71084802F00BFC4FF4FA7129
:102A0000054802F008FC1CBD204F5554332000003F
:102A10002E2E2E2E2E2E0000000800401CB50FA0DA
:102A200010210B466422CDE9001096210020FFF70B
:102A3000EBFD0CA010210B466422CDE90010A5216E
:102A40000020FFF7E1FD4FF4FA71084802F0E1FBC6
:102A50000021064802F0DFFB1CBD0000204F55544A
:102A6000332000005B5D2F7C7B7D00000008004070
:102A70001CB50FA010210B466422CDE90010962151
:102A80000020FFF7C1FD0CA010210B466422CDE908
:102A90000010A5210020FFF7B7FD0021084802F033
:102AA000B8FB4FF4FA71064802F0B5FB1CBD0000FC
:102AB000204F5554332000005B5D2F7C7B7D000050
:102AC000000800401CB50DA010210B466422CDE982
:102AD0000010B9210020FFF797FD0AA010210B4636
:102AE0006422CDE90010C8210020FFF78DFD0020F1
:102AF000064908600649C1F8B8021CBD204F55546C
:102B0000342000002E2E2E2E2E2E0000B402424223
:102B1000000042421CB50020114908601149C1F86B
:102B2000B802C82007F076FF0FA010210B466422E0
:102B3000CDE90010B9210020FFF766FD0CA010219F
:102B40000B466422CDE90010C8210020FFF75CFD90
:102B500000200349086001200249C1F8B8021CBDE9
:102B6000B402424200004242204F5554342000003B
:102B70005B5D2F7C7B7D00001CB500201149086047
:102B80001149C1F8B802C82007F044FF0FA0102176
:102B90000B466422CDE90010B9210020FFF734FD77
:102BA0000CA010210B466422CDE90010C8210020A2
:102BB000FFF72AFD01200349086000200249C1F8FF
:102BC000B8021CBDB402424200004242204F55549C
:102BD000342000005B5D2F7C7B7D00000149086292
:102BE0007047000000000E420349096841EA800175
:102BF000014A1160704700000070004007480068FB
:102C000040F00200054908600548006840F00400F3
:102C10000349086000BF00BF30BF7047007000402C
:102C200010ED00E00149086070470000A0000E426E
:102C30007047000029B1064A12680243044B1A602B
:102C400004E0034A12688243014B1A607047000097
:102C50003038024029B1064A12680243044B1A6018
:102C600004E0034A12688243014B1A607047000077
:102C70001038024029B1064A12680243044B1A6018
:102C800004E0034A12688243014B1A607047000057
:102C90003838024029B1064A12680243044B1A60D0
:102CA00004E0034A12688243014B1A607047000037
:102CB0004038024029B1064A12680243044B1A60A8
:102CC00004E0034A12688243014B1A607047000017
:102CD0002038024029B1064A12680243044B1A60A8
:102CE00004E0034A12688243014B1A6070470000F7
:102CF0004438024029B1064A12680243044B1A6064
:102D000004E0034A12688243014B1A6070470000D6
:102D100024380240F0B500210022002402250026BC
:102D20000223324F3F6807F00C0121B1042905D07E
:102D3000082937D105E02E4F076036E02D4F076098
:102D400033E02A4F3F1F3F68C7F38056274F3F1F8E
:102D50003F6807F03F036EB1264FB7FBF3F7DFF88C
:102D60008CC0ACF1040CDCF800C0CCF3881C07FB71
:102D70000CF40CE01E4FB7FBF3F7DFF870C0ACF1BA
:102D8000040CDCF800C0CCF3881C07FB0CF4174FD4
:102D90003F1F3F68C7F301477F1C7D00B4FBF5F779
:102DA000076002E0124F076000BF00BF0F4F3F688F
:102DB00007F0F0010909104F7A5C0768D7404760B7
:102DC0000A4F3F6807F4E051890A0B4F7A5C476865
:102DD000D7408760054F3F6807F46041490B064FB5
:102DE0007A5C4768D740C760F0BD000008380240F1
:102DF0000024F40000127A00D60000200149886601
:102E00007047000000004742820142EA0172014B14
:102E10001A60704784380240002101098AB242F0EA
:102E20008002044B1B6803F0800363EA0202014B3B
:102E30001A6070470C280040CA22174B1A605322B0
:102E40001A6091B1144A1C3A126820F004031A4324
:102E5000114B1C3B1A60104A1C32126800F004032C
:102E60001A430D4B1C331A6011E00B4A1C3A1268CE
:102E700020F004039A43084B1C3B1A60064A1C329C
:102E8000126800F004039A43034B1C331A60FF22BC
:102E9000014B1A6070470000242800407CB50546AD
:102EA000002400200090019000260DB1022600E0D1
:102EB00000262248006800F0007008B10E207CBD9A
:102EC0001F49098888B26946FEF796FA04460CB194
:102ED0002046F4E7019800F4802060B31848008889
:102EE00000041849086037204860402088600020AE
:102EF000C8604FF480600861084600F09BF83720F6
:102F0000FDF7BCFE04460CB12046D8E70D4806602C
:102F100006200C494860402088600020C8604FF4BB
:102F200080600861084600F085F80620FDF7A6FEDF
:102F300004462046C3E72520C1E70000142C0140C9
:102F400028000020E80300200149086070470000C5
:102F5000382C01400146034A106820F0FF00084366
:102F600010607047042C014000210B4B02681A606E
:102F70001B1D42681A601A1D116821F0F701D0E983
:102F800002231A4303691A4343691A431143024A4D
:102F90000832116070470000242C014001460020D7
:102FA000034A12680A400AB1012000E0002070477D
:102FB000342C01400248006800F003007047000014
:102FC000002C014010B500F08BFC10BD00210A4A16
:102FD000116847F6FF629143027D83681A43436894
:102FE0001A43C3681A4303681A4303691A43114317
:102FF000014A116070470000042C014000200B4979
:103000000860091D0860091D0860091D086007495E
:1030100024310860091D0860091D0860044803493F
:10302000383108600020091D08607047002C0140FD
:10303000FF07C0000021094B02681A601A1D1168C1
:103040006FF30A01D0E901231A43C3681A430369E5
:103050001A431143014A121D11607047082C0140A8
:103060000149086070470000002C014070B590B025
:1030700004460E46154600BF1A48FDF7F1FF00282A
:10308000FAD11848FDF71EFF4FF000600190164876
:103090000290039404950020059006904FF4806000
:1030A0000790800008908000099000200A904FF45B
:1030B00040300B9004200C9003200D904FF4000042
:1030C0000E9080100F9001A90648FEF723F82021EA
:1030D0000448FDF7BAFF01210248FDF7E7FE10B0F2
:1030E00070BD000058640240802C014070B5044659
:1030F000002516480078032802D12725284670BDF0
:103100001248007838B111480078012803D00F48E0
:103110000078022817D1B4F5805F02D12725284610
:10312000EDE7E0B2FFF7BAFE054665B9084800686A
:1031300020F4C05006490860084600682043086033
:103140000846006808602846D9E7000024000020EF
:10315000042C0140F0B5014600200022BE4B1B7834
:1031600081F85630BD4B1B88A1F85430BC4B1B680E
:103170001A0E93090B70C2F383034B7002F0030322
:103180008B70B74B1B68C3F30742CA70B44B1B88E4
:10319000C3F307220A71B24B1A784A715B681A0EA0
:1031A0001301CB80AE4B5B68C3F30742CB8843EA85
:1031B0001213CB8002F00F030B72A94B9B88C3F351
:1031C0000722D3094B72C2F380138B72C2F34013F0
:1031D000CB72C2F300130B7300234B739E4B1B780F
:1031E0003BB19D4B1B78012B03D09B4B1B78032BD2
:1031F0004FD193071B0D0B61994B1A790B6943EA69
:1032000082030B61964B9B681A0E0B6943EA92137B
:103210000B61C2F3C2030B7502F007034B75904BB1
:103220009B68C3F3074253098B75C2F38203CB75C6
:1032300093075B0F0B768A4B1B89C3F307220B7E28
:1032400043EAD2130B760B695B1C0024C1E91234EC
:103250000B7E9B1C012404FA03F3DC17D1E9125600
:10326000A5FB037C06FB03C305FB0433C1E9127312
:103270000C7A0123A3400B650024D1E912650B6D84
:10328000A6FB037C05FB03C306FB0433C1E91273F1
:103290002EE0714B1B78022B2AD1714B1A799306C1
:1032A0009B0A0B616E4B9B681A0E0B6943EA022363
:1032B0000B616B4B9B68C3F307420B6913430B61B4
:1032C000674B1B89C3F307220B695B1C4FF4007427
:1032D000A3FB04464FF480630025A4FB037C06FB9C
:1032E00003C304FB0533C1E912734FF400730B658C
:1032F000C2F3801301F8193F93065B0E4B70584BD5
:103300001A7A4B7843EAD2134B7002F07F038B702A
:10331000534BDB681A0ED309CB70C2F341130B7108
:10332000C2F382034B7193071B0F8B714C4BDB680D
:10333000C3F307428B7943EA92138B71C2F34013B4
:10334000CB7100230B7202F001034B72444B9B893B
:10335000C3F30722D3098B72C2F38013CB72C2F37B
:1033600040130B73C2F300134B73C2F381038B73CF
:1033700002F00303CB733A4B1A7B53080B740123FF
:103380004B74384B1B681A0ECA741939354B1B68BD
:10339000C3F307421402CC85324B1B88C3F30722C8
:1033A000CB8D1343CB852F4B1A7814060C635B68C7
:1033B0001A0E0B6B43EA02440C632A4B5B68C3F39F
:1033C00007420B6B43EA02240C63264B9B88C3F332
:1033D00007220B6B13430B63224B1A7934235A5485
:1033E000204B9B681A0E35235A541E4B9B68C3F31F
:1033F000074214068C631B4B1B89C3F307228B6B9C
:1034000043EA02448C63174B1A7A8B6B43EA02241B
:103410008C63144BDB681A0E8B6B13438B63114B5D
:10342000DB68C3F307423C235B5C43EA12143C2392
:103430005C5413071C0DCC870A4B9B89C3F30722EE
:10344000CB8F1343CB87074B1A7B540840235C5424
:10345000012441235C54F0BD2400002028000020FA
:1034600014040020240400203EB50024002501217E
:103470004448FFF7DFFB0121C802FFF72BFC0121C5
:10348000C802FFF737FC4FF4F850019002208DF886
:1034900008008DF8090000208DF80A0001208DF841
:1034A0000B0001A93848FEF771F80420019001A92A
:1034B0003648FEF76BF80C2208213348FEF7AEF8C9
:1034C0000C2209213048FEF7A9F80C220A212E48C7
:1034D000FEF7A4F80C220B212B48FEF79FF80C22D4
:1034E00011462948FEF79AF80C2202212748FEF7D8
:1034F00095F800214FF40060FFF7FCFBFFF77EFD1D
:1035000031208DF8000000208DF801008DF80200B8
:1035100001208DF803006846FFF714F900F0EEF87B
:10352000044614B900F038F804461CB91848FFF7EF
:1035300011FE044634B91649B1F85410080400F0DD
:1035400073FD044624B94FF40060FFF7CFFD044635
:103550001CB110480078032812D10D4890F856008D
:1035600020B10B4890F85600012801D1022500E057
:1035700000252846FFF7EEFC002000F06DFD044614
:1035800020463EBD0C00400000080240000C0240F6
:10359000380400202400002038B5002401200090C9
:1035A000FFF708FD10B92524204638BD4D480078A6
:1035B000042824D000204C49086002204860C02024
:1035C00088600020C8604FF4806008610846FFF7FB
:1035D00031FDFDF785FB04460CB12046E5E7434885
:1035E0000068434908604148001D006848603F4842
:1035F0000830006888603D480C300068C860394871
:10360000007858B137480078012807D0354800784D
:10361000062803D033480078022816D1002032490A
:10362000086003204860402088600020C8604FF494
:10363000806008610846FFF7FDFC69460320FDF73E
:1036400095FB04460CB12046AFE7264800780328D6
:1036500016D1BDF80000000423490860032048602B
:10366000402088600020C8604FF4806008610846F0
:10367000FFF7E0FCFDF734FB04460CB1204694E76D
:103680001848007804282AD0BDF8000019490860BD
:10369000BDF8000000041449086009204860C020FB
:1036A00088600020C8604FF4806008610846FFF71A
:1036B000C1FCFDF715FB04460CB1204675E70B482D
:1036C00000680D4908600948001D00684860074807
:1036D00008300068886005480C300068C860002029
:1036E00063E7000024000020E8030020142C0140C0
:1036F0002404002028000020140400202DE9F047B5
:103700000027002400260025A046A14676206E4909
:1037100008750020086048608860C8600861084635
:10372000FFF754FC0320FFF79BFC6848006840F457
:1037300080706649086000BF12E00020644908609C
:1037400048608860C8604FF4806008610846FFF7F1
:1037500071FCFDF77BFA044604B903E0781CC7B29C
:103760004A2FEADB00BF14B12046BDE8F0874FF4D2
:10377000D5705749086008204860402088600020C4
:10378000C8604FF4806008610846FFF753FCFDF7FE
:1037900037FB044624B901204E4908704FF0804998
:1037A00000204B4908603720486040208860002096
:1037B000C8604FF4806008610846FFF73BFC372083
:1037C000FDF75CFA0446002C4CD135E0002040495E
:1037D000086037204860402088600020C8604FF4AF
:1037E000806008610846FFF725FC3720FDF746FAA0
:1037F00004460CB12046B8E7374849EA000034498E
:10380000086029204860402088600020C8604FF48C
:10381000806008610846FFF70DFCFDF78BFA04464F
:103820000CB12046A1E7294810300668012080EA43
:10383000D67080F001086D1CB8F1000F03D14FF66F
:10384000FF708542C2D34FF6FF70854202D31B241E
:1038500020468AE706F08040060033D002201D494A
:1038600008702FE01DE01D481949086001204860DC
:10387000402088600020C8604FF4806008610846DE
:10388000FFF7D8FBFDF756FA04460CB120466CE76B
:103890000E4810300668012080EAD67080F00108DA
:1038A0006D1CB8F1000F03D14FF6FF708542DAD3DB
:1038B0004FF6FF70854202D31B24204655E70320B4
:1038C00004490870204650E7D0030020042C014032
:1038D000E803002024000020000010800080FF800A
:1038E00010B54FF48070FFF759FB78B34C4800785F
:1038F000012814D100204B4908600C20486040206A
:1039000088600020C8604FF4806008610846FFF7B7
:1039100091FB0C20FDF7B2F94349087002E000204A
:10392000414908704148006840F480703F49086090
:10393000081D00684CF23A3188433C49091D086073
:1039400001203B4908703848007810BDFFE702208D
:10395000FFF724FB78B10220FFF7F6FA3348001D89
:1039600000684CF23A3188433049091D0860022052
:103970002D490870E9E70820FFF710FB78B108200F
:10398000FFF7E2FA2948001D00684CF23A318843FB
:103990002649091D0860042023490870D5E7202026
:1039A000FFF7FCFA78B12020FFF7CEFA1F48001D80
:1039B00000684CF23A3188431C49091D0860062012
:1039C00019490870C1E71020FFF7E8FA78B1102014
:1039D000FFF7BAFA1548001D00684CF23A318843E7
:1039E0001249091D086005200F490870ADE74FF422
:1039F0000070FFF7D3FA80B14FF40070FFF7A4FA1C
:103A00000A48001D00684CF23A3188430749091DF5
:103A1000086007200449087097E7002095E7000038
:103A20002D000020E80300202E000020382C01404B
:103A30002F0000202DE9F84F8146174698460A9C32
:103A40004FF0000AD3464D464FF0FF36B9F1000F54
:103A500002D12620BDE8F88F0020864908608648FC
:103A60000078022805D10402780A40EAC8574FEAD4
:103A700068280020814988604860401E0860012055
:103A800048610020C86008610846FFF76DFA794870
:103A90001838006800F0007008B10E20DAE7002C3A
:103AA00021DDB4F5006F1EDC601E2040D8B9204631
:103AB00006F088FF0090724804601020704948604A
:103AC000402088600020C8604FF48060086108468C
:103AD000FFF7B0FA1020FDF7D1F88246BAF1000FD7
:103AE00003D05046B6E72620B4E7009800016349AA
:103AF0008860084644604FF0FF300860012048614C
:103B00000220C860002008610846FFF72DFA5C48D3
:103B1000076011205A494860402088600020C86032
:103B20004FF4806008610846FFF784FA1120FDF722
:103B3000A5F88246BAF1000F01D050468AE75148F5
:103B4000007800285CD1FCF7A0FB18E04FF400409F
:103B5000FFF724FA78B14FF0000B06E045485430E7
:103B6000006845F82B000BF1010BBBF1080FF5D3F2
:103B70002035454E03E00EB904206BE7761E3D4824
:103B80000830006840F22A6108400028DED0082092
:103B9000FFF704FA20B10820FFF7D6F9042059E70F
:103BA0000220FFF7FBF920B10220FFF7CDF9022038
:103BB00050E72020FFF7F2F920B12020FFF7C4F9E9
:103BC000062047E74FF40070FFF7E8F928B14FF4FB
:103BD0000070FFF7B9F907203CE704E025485430AE
:103BE000006828602D1D4FF40010FFF7D7F900285A
:103BF000F4D1FCF74CFB40F2FF50FFF7A5F936E09B
:103C000020480078012832D100202049087020493E
:103C100008702049087017481030006840F22A31B7
:103C200008431449103108601248006840F0080049
:103C300010490860002221464846FFF717FA00E0C5
:103C4000761E1548006800F0006038B91148007809
:103C500020B90E48007808B9002EF1D10EB9042021
:103C6000F8E60A48007810B1084890F800A05046DD
:103C7000F0E600002C2C014024000020FC03002072
:103C8000E80300202C000020FFFF7F002E00002012
:103C90002D0000202F000020006402402DE9FE4F7F
:103CA00083460C46914600200290002625462C466D
:103CB000700240EAD5566D020BF00300F0B14FF0F0
:103CC000000A18E04FF4007000904FEA4A204719AC
:103CD00046EBE0733A461648FFF7ACFE02904FF40D
:103CE000007213495846FCF7A5FC0BF5007B0AF15E
:103CF000010000F0FF0ACA45E4DB16E0B9F1010F4C
:103D000009D14FF400702A46334600905846FFF719
:103D100091FE029009E04FF400702A463346CDE947
:103D20000009584600F006F802900298BDE8FE8FA0
:103D3000900400202DE9FF5F17469846DDE90E4606
:103D40004FF00009CA464FF0FF35AC4900980860B3
:103D50000020AB490860AB480078022805D1040276
:103D6000780A40EAC8574FEA68280020A6498860C8
:103D70004860401E0860012048610020C86008615A
:103D80000846FFF7F1F89E481838006800F0007008
:103D900018B10E2004B0BDE8F09F002C21DDB4F571
:103DA000006F1EDC601E2040D8B9204606F00AFED7
:103DB00083469648046010209449486040208860FB
:103DC0000020C8604FF4806008610846FFF732F9B0
:103DD0001020FCF753FF8146B9F1000F03D048468D
:103DE000D8E72620D6E7012E71D906FB04F0B0F102
:103DF000007F01D32620CDE74FEA0B10824988606F
:103E000006FB04F048604FF0FF3008600120486175
:103E10000220C860002008610846FFF7A5F87B482B
:103E20000760122079494860402088600020C860FF
:103E30004FF4806008610846FFF7FCF81220FCF799
:103E40001DFF8146B9F1000F01D04846A2E7704836
:103E5000007800287ED1FCF718FA1EE04FF40040ED
:103E6000FFF79CF8A8B14FF0000A08E0644854300E
:103E700000686249096841F82A000AF1010ABAF1AA
:103E8000080FF3D35D48006820305C490860614D3D
:103E900003E00DB904207DE76D1E59480830006825
:103EA00040F22A3108400028D8D00820FFF776F8E1
:103EB00020B10820FFF748F804206BE70220FFF745
:103EC0006DF828B10220FFF73FF8022062E792E088
:103ED0002020FFF763F820B12020FFF735F80620F7
:103EE00058E74FF40070FFF759F828B14FF400700D
:103EF000FFF72AF807204DE70AE0414854300068F0
:103F00003E49096808603D480068001D3B4908605B
:103F10004FF40010FFF742F80028EED14FF4807004
:103F2000FFF73CF820B33748007838B135480078BF
:103F3000012803D033480078022819D100203349E2
:103F400008600C204860402088600020C8604FF462
:103F5000806000E013E008610846FFF76BF80C2072
:103F6000FCF78CFE8146B9F1000F01D0484611E7FD
:103F7000FCF78DF940F2FF50FEF7E6FF3BE02448E6
:103F80000078012837D100202349087001202349F7
:103F9000087000202249087019481030006840F26B
:103FA0002A3108431649103108601548006840F06E
:103FB00008001349086006FB04F100220098FFF78F
:103FC00055F800E06D1E1748006800F0006008B961
:103FD000002DF7D10DB90420DCE600BF10480078B1
:103FE00018B90D4800780028F8D00B48007810B1B7
:103FF000094890F800904846CCE6000030000020C8
:104000002C2C014024000020FC030020E8030020A9
:104010002C000020FFFF7F002E0000202D0000203C
:104020002F0000200064024010B5044609480460D7
:10403000072008494860402088600020C8604FF48D
:10404000806008610846FEF7F5FF0720FCF716FEC2
:1040500010BD0000E803002001460020012900D027
:1040600011B9024B197000E0262070472C00002087
:104070002DE9FF5F86B017469846149D0026002064
:104080000590049000248146039082460290019599
:10409000DDF818B0DDF818B0BBF1000F03D1262011
:1040A0000AB0BDE8F09F0020C9490860C94988608E
:1040B0004860401E0860012048610020C860086117
:1040C0000846FEF751FFC2481838006800F000703B
:1040D00008B10E20E4E7C0480078022805D10502A7
:1040E000780A40EAC8574FEA6828002D1FDDB5F569
:1040F000006F1CDC681E2840C8B9284606F062FC28
:104100000590B64805601020B4494860402088609A
:104110000020C8604FF4806008610846FEF78AFFFF
:104120001020FCF7ABFD06461EB13046B8E726204E
:10413000B6E7AB4800880004A84908600D20486035
:10414000402088600020C8604FF480600861084605
:10415000FEF770FF0D20FCF791FD06460EB13046CC
:104160009EE79B481838006803904FF0FF341CE02E
:10417000641E9B4800880004984908600D20486030
:10418000402088600020C8604FF4806008610846C5
:10419000FEF750FF0D20FCF771FD06460EB13046CC
:1041A0007EE78B48183800680390039800F480700D
:1041B00008B9002CDCD10CB9292071E787480760C9
:1041C000182086494860402088600020C8604FF46D
:1041D000806008610846FEF72DFF1820FCF74EFDB1
:1041E00006460EB130465BE700207E490870059810
:1041F000000178498860084645604FF0FF3008604C
:10420000012048610020C86008610846FEF7ACFE46
:104210004FF0FF347448007800287ED1FCF735F861
:1042200045E04FF48040FEF7B9FED8B30198A0EB0B
:104230000900202822D20198A0EB090000F0030019
:1042400020B90198A0EB0900800804E00198A0EBD8
:1042500009008008401C02904FF0000A0AE05C4907
:104260005431DBF8000008600AF1010A0BF1040B7D
:1042700009F1040902988245F1D310E04FF0000AD9
:1042800006E05BF82A005249543108600AF1010A3D
:10429000BAF1080FF5D30BF1200B09F120096FF0EB
:1042A000404404E0FFE70CB90420F9E6641E4848E6
:1042B0000830006840F21A6108400028B1D0082098
:1042C000FEF76CFE20B10820FEF73EFE0420E7E674
:1042D0000220FEF763FE20B10220FEF735FE022029
:1042E000DEE61020FEF75AFE20B11020FEF72CFE6D
:1042F0000520D5E64FF40070FEF750FE30B14FF4C4
:104300000070FEF721FE0720CAE606E0FBF7BFFFBC
:1043100040F2FF50FEF718FE41E0334800780128D4
:104320003DD10020314908702E490870304908708D
:1043300027481030006840F21A31084324491031F0
:104340000860402229460698FEF790FE2048006843
:1043500040F008001E49086000E0641E254800681F
:1043600000F0006008B9002CF7D11CB9FFF77CF809
:10437000042095E64FF0FF3400E0641E1C480078EE
:1043800020B91A48007808B9002CF6D10CB90420DD
:1043900086E61648007810B11448007880E640F2AE
:1043A000FF50FEF7D1FD04A8FDF786FC064603E0AA
:1043B00004A8FDF781FC06463EB99DF810000728C9
:1043C000F6D09DF810000628F2D0304668E60000CE
:1043D0002C2C0140FC03002024000020E8030020D6
:1043E000280000202D0000202C0000202E0000209E
:1043F0002F000020006402402DE9FE4F81460C464C
:10440000924600200290002625462C46700240EA83
:10441000D5566D0209F00300F0B14FF0000B18E023
:104420004FF4007249461948FCF704F94FF4007044
:1044300000904FEA4B20471946EBE0733A46134889
:10444000FFF716FE029009F500790BF1010000F06C
:10445000FF0BD345E4DB16E0BAF1010F09D14FF4AD
:1044600000702A46334600904846FFF701FE02904E
:1044700009E04FF400702A463346CDE9000A484669
:1044800000F006F802900298BDE8FE8F900400202C
:104490002DE9FF5F84B0DDE912470026002003907C
:1044A0000290002580468146019007FB04FBDDF861
:1044B00010A0DDF810A0BAF1000F03D1262008B03B
:1044C000BDE8F09F0020DC490860DC498860486056
:1044D000401E0860012048610020C860086108464D
:1044E000FEF742FDD4481838006800F0007008B1AB
:1044F0000E20E4E7D2480078022808D10402DDE962
:104500000601400A40EAC1504912CDE90601002CDB
:104510001FDDB4F5006F1CDC601E2040C8B92046CA
:1045200006F050FA0390C74804601020C54948605F
:10453000402088600020C8604FF480600861084611
:10454000FEF778FD1020FCF799FB06461EB13046B9
:10455000B5E72620B3E7012F6FD907FB04F0B0F1D0
:10456000007F01D32620AAE7B548007838B1B448C7
:104570000078012803D0B248007802282DD1B24833
:1045800000880004AF4908603720486040208860F8
:104590000020C8604FF4806008610846FEF74AFDBD
:1045A0003720FCF76BFB06460EB1304687E7A5487F
:1045B00007601720A3494860402088600020C86039
:1045C0004FF4806008610846FEF734FD1720FCF7C1
:1045D00055FB06460EB1304671E79A4906980860C9
:1045E00019204860402088600020C8604FF4806037
:1045F00008610846FEF71EFD1920FCF73FFB064642
:104600000EB130465BE7039800018C49886007FBD8
:1046100004F048604FF0FF3008600120486100203E
:10462000C86008610846FEF79FFC884800780028AB
:1046300074D1451EFBF729FE42E0E4E04FF48040D0
:10464000FEF7ACFCB8B3ABEB080020281FD2ABEBF5
:10465000080000F0030018B9ABEB0800800803E085
:10466000ABEB08008008401C01904FF000090AE005
:1046700071495431DAF80000086009F101090AF1C2
:10468000040A08F1040801988145F1D310E04FF0C5
:10469000000906E05AF8290067495431086009F119
:1046A0000109B9F1080FF5D30AF1200A08F1200831
:1046B0006FF0404504E0FFE70DB90420FFE66D1EF2
:1046C0005D480830006840F21A3108400028B5D033
:1046D0000820FEF763FC20B10820FEF735FC04201B
:1046E000EDE60220FEF75AFC20B10220FEF72CFC7A
:1046F0000220E4E61020FEF751FC20B11020FEF766
:1047000023FC0520DBE64FF40070FEF747FC30B1D8
:104710004FF40070FEF718FC0720D0E62CE04FF4B1
:104720008070FEF73BFC00B34548007838B1444840
:104730000078012803D042480078022815D10020D3
:10474000404908600C204860402088600020C86014
:104750004FF4806008610846FEF76CFC0C20FCF703
:104760008DFA06460EB13046A9E6FBF790FD40F201
:10477000FF50FEF7E9FB46E034480078012842D1BB
:104780000020334908700120324908700020324966
:10479000087029481030006840F21A310843264951
:1047A0001031086007FB04F140220498FEF75EFC1C
:1047B0002148006840F008001F4908604FF0FF35AD
:1047C00000E06D1E2548006800F0006008B9002D6B
:1047D000F7D11DB9FEF748FE042070E64FF0FF3513
:1047E00000E06D1E1C48007820B91948007808B90F
:1047F000002DF6D10DB9042061E61548007810B1FE
:10480000134800785BE640F2FF50FEF79DFB02A8DC
:10481000FDF752FA064603E002A8FDF74DFA0646F8
:104820003EB99DF808000728F6D09DF80800062834
:10483000F2D0304643E600002C2C0140FC0300205F
:1048400024000020E8030020280000202C00002085
:104850002E0000202D0000202F00002000640240C8
:1048600000B587B001210220FEF7E4F90121880399
:10487000FEF710FA4FF46040059002208DF8180002
:1048800000208DF81A0003208DF8190001208DF802
:104890001B0005A92148FCF779FE05220D211F48C0
:1048A000FCF7BCFE05220E211C48FCF7B7FE0522D2
:1048B0000F211A48FCF7B2FE01218803FEF7FAF92E
:1048C00000214FF48040FEF7F5F90020ADF800001C
:1048D0004FF48270ADF802000020ADF80400022011
:1048E000ADF806000120ADF808004002ADF80A005E
:1048F0003820ADF80C000020ADF80E000720ADF810
:1049000010006946064800F060F80121044800F0F4
:1049100039F8FF2000F006F807B000BD000402409F
:104920000038004010B5044600BF02210A4800F0DC
:104930003EF80028F9D02146074800F044F800BFAF
:104940000121054800F033F80028F9D0024800F0B2
:1049500037F8C0B210BD00000038004010B5044662
:10496000074800884FF6C771084005490880084687
:104970000088204308800121014800F003F810BDA1
:104980000038004021B1028842F04002028004E079
:1049900002884FF6BF731A40028070471AB18388AD
:1049A0000B43838002E083888B43838070470246F9
:1049B000002013890B400BB1012000E0002070475C
:1049C0000146888970478181704710B500220288AE
:1049D00002F441520B884C8823438C882343CC88B3
:1049E00023430C8923434C8923438C892343CC895B
:1049F00023431A430280838B4FF2FF742340838347
:104A00000B8A038210BD704730B500228B071C0F44
:104A10000F2303FA04F20B4B8C1053F8243093430A
:104A2000084C8D1044F8253023468C1053F8243060
:104A30008C07240F00FA04F42343024C8D1044F831
:104A4000253030BD083801400CB5002001900090A1
:104A50003448006840F480303249086000BF314873
:104A6000006800F4003000900198401C019000980C
:104A700018B90198B0F5A04FF1D12A48006800F4A8
:104A8000003010B10120009001E00020009000985B
:104A9000012846D123484030006840F08050214929
:104AA000403108602048006840F440401E490860DA
:104AB0001C48083000681B49083108600846006837
:104AC00040F4004008600846006840F4A0500860C8
:104AD0001648091F0860081F006840F08070091F11
:104AE000086000BF0F48006800F000700028F9D08F
:104AF00040F205700E4908600A480830006820F04E
:104B000003000849083108600846006840F00200C8
:104B1000086000BF03480830006800F00C00082857
:104B2000F8D10CBD00380240007000400854400726
:104B3000003C0240042808D14FF0E021096941F00F
:104B400004014FF0E022116107E04FF0E021096914
:104B500021F004014FF0E02211617047704700001E
:104B600010B504E04FF400611248FCF783FD1248D1
:104B700000680028F6D1012140F2FF40FEF76AF8F4
:104B800001210807FEF786F80120FEF727F800212B
:104B90004FF47040FEF750F94FF47040FEF73CF9C7
:104BA0000120FEF721F80120FEF73CF8FEF726F879
:104BB00010BD0000000002400002404210B5154840
:104BC000006840F47000134908601348006840F022
:104BD00001001149086000200F49083108600E48A3
:104BE00000680E4908400C4908600D48091D08601E
:104BF000081F006820F48020091F08600020064973
:104C00000C310860FFF720FF4FF000600149803948
:104C1000086010BD88ED00E000380240FFFFF6FE9E
:104C20001030002430B58BB004460D46012102201F
:104C3000FEF730F801210846FDF7FCFF02220621AD
:104C40003248FCF7EBFC4020099002208DF8280048
:104C500003208DF8290000208DF82A0001208DF80E
:104C60002B0009A92948FCF791FC022207212748BB
:104C7000FCF7D4FC8020099002208DF82800032046
:104C80008DF8290000208DF82A0001208DF82B00D6
:104C900009A91E48FCF77AFCA8B2ADF8180000205C
:104CA000ADF81A000794ADF8200006A9184800F0E6
:104CB000BBFA6020ADF804000120ADF80600022028
:104CC000ADF8100001A9124800F056F9082110486B
:104CD00000F090F96020ADF804000120ADF8060066
:104CE0000220ADF8100001A9094800F08DF9082153
:104CF000074800F0DBF90121054800F0F9F801212F
:104D0000034800F007F90BB030BD0000000002407E
:104D10000004004010B501210A4800F013F90128F1
:104D20000AD10949086980470021064800F079FA4C
:104D30006421044800F06BFA0121024800F0E7F812
:104D400010BD0000000800407401002030B58BB099
:104D500004460D4601210420FDF79CFF012102209D
:104D6000FDF768FF01210820FDF764FF02220821FA
:104D70005C48FCF753FC4FF48070099002208DF8DA
:104D8000280003208DF8290000208DF82A0001203A
:104D90008DF82B0009A95348FCF7F8FB02220921E2
:104DA0005048FCF73BFC4FF40070099002208DF84E
:104DB000280003208DF8290000208DF82A0001200A
:104DC0008DF82B0009A94748FCF7E0FB02220C21D3
:104DD0004548FCF723FC4FF48050099002208DF8E1
:104DE000280003208DF8290000208DF82A000120DA
:104DF0008DF82B0009A93C48FCF7C8FB02220D21C5
:104E00003948FCF70BFC4FF40050099002208DF854
:104E1000280003208DF8290000208DF82A000120A9
:104E20008DF82B0009A93048FCF7B0FBA8B2ADF80B
:104E300018000020ADF81A000794ADF8200006A96C
:104E40002A4800F0F1F96020ADF804000120ADF827
:104E500006000220ADF8100001A9244800F08CF8EB
:104E60000821224800F0C6F86020ADF804000120B7
:104E7000ADF806000220ADF8100001A91B4800F0B3
:104E8000C3F80821194800F011F96020ADF80400BA
:104E90000120ADF806000220ADF8100001A913486A
:104EA00000F012F90821114800F05EF96020ADF819
:104EB00004000120ADF806000220ADF8100001A9A1
:104EC0000A4800F05BF90821084800F093F9012135
:104ED000064800F00DF80121044800F01BF80BB063
:104EE00030BD000000040240000C024000080040F9
:104EF00021B1028842F08002028004E002884FF66D
:104F00007F731A4002807047CA4302827047CA43C7
:104F10000282704721B1028842F00102028004E05F
:104F200002884FF6FE731A40028070470146486AB5
:104F3000704702460020138A0B400BB1012000E0AD
:104F40000020704730B50246002000230024158A57
:104F500005EA0103958905EA010413B10CB10120AA
:104F600000E0002030BD1AB183890B43838102E049
:104F700083898B438381704770B50024002200230E
:104F8000058C4FF6FE7635400584028C8388048BB1
:104F90004FF68F752C40B51E2C400D882C43751E86
:104FA0002A408D892A434D882A43104DA84202D0B9
:104FB0000F4DA84213D14FF6F7752A40CD892A43E9
:104FC0004FF6FB752A408D882A434FF6FF652B402C
:104FD0004FF6FF552B400D8A2B434D8A2B43838080
:104FE00004838D684563028470BD000000000140A9
:104FF000000401400A460021018B4FF6F773194067
:10500000114301837047000070B500240022002383
:10501000058C4FF6EF7635400584028C8388048B2F
:1050200048F6FF752C404FF6FF452C400D884FF693
:10503000FF7606EA05252C434FF6DF752A408D8959
:1050400006EA05152A434D8806EA05152A43154D3B
:10505000A84202D0144DA8421DD14FF67F752A40B8
:10506000CD894FF6FF7606EA05152A434FF6BF7540
:105070002A408D8806EA05152A434FF6FF352B4056
:105080004FF2FF752B400D8A06EA85052B434D8AAA
:1050900006EA85052B43838004838D68856302843B
:1050A00070BD000000000140000401400A460021DC
:1050B000018B4FF2FF7319404FF6FF7303EA02238F
:1050C000194301837047000070B5002400220023BB
:1050D000058C4FF6FF6635400584028C8388848BEF
:1050E0004FF68F752C404FF6FC752C400D882C43E5
:1050F0004FF6FF552A408D894FF6FF7606EA0525C3
:105100002A434D8806EA05252A43154DA84202D0B8
:10511000144DA8421DD14FF2FF752A40CD894FF69C
:10512000FF7606EA05252A434FF6FF352A408D888B
:1051300006EA05252A434EF6FF752B404DF6FF750E
:105140002B400D8A06EA05152B434D8A06EA051504
:105150002B43838084838D68C563028470BD000007
:1051600000000140000401400A460021818B4FF6F7
:10517000F7731940114381837047000070B5002216
:1051800000230024058C4EF6FF7635400584038C01
:105190008488828B48F6FF752A404FF6FF452A40E7
:1051A0000D884FF6FF7606EA05252A434DF6FF7572
:1051B0002B408D8906EA05352B434D8806EA0535D7
:1051C0002B430A4DA84202D0094DA84208D14BF604
:1051D000FF752C400D8A4FF6FF7606EA85152C43A5
:1051E000848082838D680564038470BD0000014063
:1051F000000401400A460021818B4FF2FF731940E1
:105200004FF6FF7303EA0223194381837047C1629B
:1052100070474163704781637047C16370470164A1
:10522000704741627047000000220288184B984284
:105230000ED0184B98420BD0B0F1804F08D0164BCF
:10524000984205D0154B984202D0154B984204D194
:105250004FF68F731A404B881A43124B984207D06F
:10526000114B984204D04FF6FF431A400B891A4362
:1052700002804B68C3620B880385054B984202D0BD
:10528000044B984201D18B7A0386012383827047B5
:1052900000000140000401400004004000080040FC
:1052A000000C004000100040001400407FB5044690
:1052B0000D4601210420FDF7EDFCADF80050002063
:1052C000ADF802000194ADF8080069460D48FFF7FB
:1052D000ABFF012211460B48FFF745FE01210948AB
:1052E000FFF718FE1E208DF80C0003208DF80D002E
:1052F0008DF80E0001208DF80F0003A8FDF722FAAB
:105300007FBD0000000800401CB528A010210A2322
:105310006422CDE90010B9218220FDF775F925A09E
:1053200010210A236422CDE90010C8218220FDF754
:105330006BF922A010210B466422CDE900109621C2
:105340008220FDF761F91BA010210B466422CDE9F4
:105350000010A5218220FDF757F91AA010210B4655
:105360006422CDE9001073218220FDF74DF911A0D0
:1053700010210B466422CDE9001082210846FDF77A
:1053800043F912A010210B466422CDE900105021F0
:105390008220FDF739F907A010210B466422CDE9E0
:1053A00000105F218220FDF72FF91CBD2020494EFF
:1053B000342000002E2E2E2E2E2E00002020494EAE
:1053C000332000002020494E322000002020494E8A
:1053D000312000001CB50AA010210B466422CDE943
:1053E000001050218220FDF70FF907A010210B4675
:1053F0006422CDE900105F218220FDF705F91CBD74
:105400002020494E312000005B5D28297B7D000073
:105410001CB50AA010210B466422CDE900107321AF
:105420008220FDF7F1F807A010210B466422CDE998
:10543000001082210846FDF7E7F81CBD2020494EE8
:10544000322000005B5D28297B7D00001CB50AA08E
:1054500010210B466422CDE9001096218220FDF731
:10546000D3F807A010210B466422CDE90010A52136
:105470008220FDF7C9F81CBD2020494E33200000D2
:105480005B5D28297B7D00001CB550A010210A23FC
:105490006422CDE90010B9210020FDF7B5F84DA038
:1054A00010210A236422CDE90010C8210020FDF755
:1054B000ABF84AA010210B466422CDE900109621DA
:1054C0000020FDF7A1F843A010210B466422CDE98E
:1054D0000010A5210020FDF797F842A010210B46EF
:1054E0006422CDE9001073210020FDF78DF839A06A
:1054F00010210B466422CDE9001082210020FDF727
:1055000083F83AA010210B466422CDE90010502107
:105510000020FDF779F82FA010210B466422CDE979
:1055200000105F210020FDF76FF832A010210A2340
:105530006422CDE90010B9218220FDF765F825A08D
:1055400010210A236422CDE90010C8218220FDF732
:105550005BF82AA010210B466422CDE900109621A9
:105560008220FDF751F81BA010210B466422CDE9E3
:105570000010A5218220FDF747F822A010210B463C
:105580006422CDE9001073218220FDF73DF811A0BF
:1055900010210B466422CDE9001082210846FDF758
:1055A00033F81AA010210B466422CDE900105021D7
:1055B0008220FDF729F807A010210B466422CDE9CF
:1055C00000105F218220FDF71FF81CBD204F5554AD
:1055D000312000002E2E2E2E2E2E0000204F55544E
:1055E00032200000204F555433200000204F5554E6
:1055F000342000002020494E342000002020494E55
:10560000332000002020494E322000002020494E47
:105610003120000070B5002540F22551CA4800F045
:10562000FDF900287ED0C84800F0B2FAC6B20020CA
:10563000C6490880C648C749096840F82160C6487D
:10564000007807286FD2DFE800F00426598AABFB08
:10565000F900BF48BF49096850F8210050B9BE4859
:105660000078401CBC490870BA480068401CB94921
:1056700008600FE00020B8490870B6490860B749D3
:105680000870B749087007F09BF90020B549087009
:10569000B049086055E1AE48AE49096850F82100AC
:1056A000532808D10320AC490870AA480068401C60
:1056B000A849086021E0A648A649096850F82100D9
:1056C00052280AD1A4480078401CA3490870A14878
:1056D0000068401C9F4908600FE000209E49087048
:1056E0009C4908609D4908709D4908709D49087053
:1056F00007F066F900209749086022E1944895492F
:10570000096850F8210055281BD19548007868B9E0
:10571000012093490870944908709449087000204A
:10572000904901E00EE1FFE0087004E000208C49A0
:1057300008708C4908700020874908708549086006
:105740000CE0002084490870824908608349087091
:10575000834908708349087007F032F9F1E00020AE
:105760007F4908707F49087079487A49096850F87C
:10577000210054280AD178480078401C76490870E6
:1057800074480068401C7349086008E000207249B2
:105790000870704908607149087007F011F9D0E08D
:1057A00000206F4908706F490870694869490968A5
:1057B00030F82100C0F347006D49087008460078B2
:1057C000401E4000401C6B49087069480078002862
:1057D0000EDD674800781E280ADA5F480078401C12
:1057E0005D4908705B480068401C5A49086024E025
:1057F00057485849096850F8210001280FD15648E8
:105800000078401C5449087052480068401C5149B7
:10581000086007F0D5F80020504908700DE000201E
:105820004D4908704B4908604C4908704D49087053
:1058300007F0C6F800204749086082E02BE0FFE748
:1058400000204749087047490870494800784000DF
:10585000801D40490968884207D03F480078401CB5
:105860003D490870FBF782FC0DE04148007850B9D3
:1058700037483849096850F8210020B901203E49CD
:1058800008703949087007F09BF832480068401CDE
:105890003049086055E000203149087035480078EB
:1058A000022802D10120344908703248007850B1F2
:1058B00028480068401C274908602E480078401E90
:1058C0002C4908702FE0002407E0E01C204911F863
:1058D00020002844C5B2601CC4B2254800784000AE
:1058E000A042F2DA1A481B49096850F82100A84280
:1058F00013D1012019490870002017490870154973
:10590000086001201749087000201549087001201F
:105910001549087007F054F802E000200F4908709C
:1059200000200F4908700CE000200B49087009495D
:1059300008600B49087007F043F800200749087019
:1059400000BF00BF70BD0000001001401400002027
:105950008C02002000000020B4000020B6000020CF
:10596000B70000201100002088020020C0000020A5
:105970000F000020B50000200E00002010B540F2FE
:1059800025511D4800F04AF810B31B4800F000F9FB
:10599000C4B21A48008800F40040C8B9174800880B
:1059A00000F4804060B10A2C03D000201349088025
:1059B00021E01248008840F40040104908801AE0B5
:1059C0000D2C06D10D48008840F480400B4908801A
:1059D00011E00A480088C0F30D0009490C5407483B
:1059E0000088401C0549088008460088B0F5C87F3B
:1059F00001DB0020088010BD00440040BC000020F6
:105A00002018002021B1828942F40052828104E0F2
:105A100082894DF6FF731A408281704770B5024645
:105A2000002400230025002040F66A16B14200D170
:105A300000BFC1F3421501F01F03012606FA03F36C
:105A4000012D02D19689334006E0022D02D1168A3B
:105A5000334001E0968A33400C12012606FA04F422
:105A60001688344013B10CB1012000E0002070BD55
:105A7000F0B50346002400260025002040F66A17F2
:105A8000B94200D100BF1846C1F3421401F01F060D
:105A9000012707FA06F5012C01D10C3004E0022C95
:105AA00001D1103000E014301AB107682F430760AD
:105AB00002E00768AF430760F0BD00002DE9FF4733
:105AC00005460E460024A14600BFA046B08900B19D
:105AD00000BF2C8A24F44054F08804432C82AC8903
