:020000040800F2
:10000000400A002029020008A1050008F7030008A3
:100010009D050008D10200089B13000800000000A5
:100020000000000000000000000000007D07000844
:1000300009030008000000003106000895080008C8
:10004000430200084302000843020008430200087C
:10005000430200084302000843020008430200086C
:10006000430200084302000843020008430200085C
:10007000430200084302000843020008430200084C
:10008000430200084302000843020008430200083C
:10009000430200084302000843020008430200082C
:1000A000430200084302000843020008430200081C
:1000B000430200084302000843020008430200080C
:1000C00043020008430200084302000843020008FC
:1000D00043020008F10E00087D11000843020008E9
:1000E00043020008430200084302000843020008DC
:1000F00043020008430200084302000843020008CC
:1001000043020008430200084302000843020008BB
:1001100043020008430200084302000843020008AB
:10012000430200084302000843020008430200089B
:10013000430200084302000843020008430200088B
:10014000430200084302000843020008430200087B
:10015000430200084302000843020008430200086B
:10016000430200084302000843020008430200085B
:10017000430200084302000843020008430200084B
:10018000430200084302000800F002F800F03CF8C7
:100190000AA090E8000C82448344AAF10107DA45E2
:1001A00001D100F031F8AFF2090EBAE80F0013F0F8
:1001B000010F18BFFB1A43F001031847583F000016
:1001C000783F0000103A24BF78C878C1FAD85207A7
:1001D00024BF30C830C144BF04680C6070470000C1
:1001E0000023002400250026103A28BF78C1FBD840
:1001F000520728BF30C148BF0B6070471FB503F0DE
:1002000083FF1FBD10B510BD00F033F81146FFF796
:10021000F5FF03F0F3FE00F051F803B4FFF7F2FF2F
:1002200003BC01F029F9000009488047094800474C
:10023000FEE7FEE7FEE7FEE7FEE7FEE7FEE7FEE796
:10024000FEE7FEE704480549054A064B70470000F3
:10025000990800088901000840040020400A002095
:1002600040060020400600207047704770477047E6
:100270007047754600F028F8AE46050069465346BB
:1002800020F00700854618B020B5FFF7DBFFBDE87A
:1002900020404FF000064FF000074FF000084FF0ED
:1002A000000B21F00701AC46ACE8C009ACE8C0097E
:1002B000ACE8C009ACE8C0098D4670470446AFF30E
:1002C00000802046FFF7A9FF00487047DC030020AC
:1002D00000BFFEE700200B49086048608860C860E6
:1002E000086148618861C861086248628862C862C2
:1002F000086348638863C863086448648864C864A2
:1003000008657047340000207047F0B50A460021A8
:100310000023002400BF3DE0012505FA01F3156824
:1003200005EA03049C4234D105684F000326BE4011
:10033000B543056015794E00B54006683543056044
:100340001579012D02D01579022D16D185684F003F
:100350000326BE40B543856055794E00B54086689A
:1003600035438560456801268E40B5434560456844
:1003700096798E40B6B235434560C5684F00032676
:10038000BE40B543C560D5794E00B540C66835431B
:10039000C560491C1029BFD3F0BDF0B5002300246F
:1003A0004D07ED0E02FA05F3CE1000F1200555F8C9
:1003B00026504E07F70E0F26BE40B543CF1000F172
:1003C000200646F82750CE1000F1200555F826509B
:1003D00045EA0304CE1000F1200545F82640F0BDA3
:1003E0000246002013690B400BB1012000E0002001
:1003F00070470183704700BFFEE700001CB5012174
:10040000062000F017F90120009000208DF804006C
:1004100003208DF8050001208DF807006946094882
:10042000FFF773FF1520009000208DF804000320D3
:100430008DF8050001208DF8070069460248FFF796
:1004400064FF1CBD00040240000802401CB50121ED
:10045000084600F0EFF841F6C300009001208DF847
:10046000040000208DF8060003208DF8050001200F
:100470008DF8070069464148FFF747FF41F6C30181
:100480003E48FFF7B6FF0121022000F0D3F840F20A
:100490000230009001208DF8040000208DF8060045
:1004A00003208DF8050001208DF8070069463448C7
:1004B000FFF72BFF40F202313148FFF79AFF01218D
:1004C000042000F0B7F82A20009001208DF80400E5
:1004D00000208DF8060003208DF8050001208DF81E
:1004E000070069462748FFF710FF2A212548FFF734
:1004F00080FF0121082000F09DF843F248000090A1
:1005000001208DF8040000208DF8060003208DF8EE
:10051000050001208DF8070069461B48FFF7F5FE2E
:1005200043F248011848FFF764FF0121102000F052
:1005300081F84FF64000009001208DF80400002063
:100540008DF8060003208DF8050001208DF80700C6
:1005500069460E48FFF7D9FE4FF640010B48FFF7FA
:1005600048FF00200A4908600A49C1F884020A4984
:1005700008600849C1F894021CBD00000000024058
:100580000004024000080240000C0240001002403B
:1005900084824042000041428C02414200BFFEE79B
:1005A0007047000070B5002100230F22C4781CB3EF
:1005B000174C246804F4E064C4F5E064C4F3072134
:1005C000C1F10404E3B20A4144789C40E1B284786A
:1005D000144021430C07210E0E4C05786155047818
:1005E00004F01F050124AC4005786D11AD0005F144
:1005F000E025C5F8004109E0047804F01F05012456
:10060000AC40054D0678761145F8264070BD0000D7
:100610000CED00E000E400E080E100E0024901436D
:10062000024A1160704700000000FA050CED00E07E
:100630007047000029B1064A12680243044B1A6051
:1006400004E0034A12688243014B1A6070470000BD
:100650003038024029B1064A12680243044B1A603E
:1006600004E0034A12688243014B1A60704700009D
:100670004038024029B1064A12680243044B1A600E
:1006800004E0034A12688243014B1A60704700007D
:1006900044380240F0B50021002200240225002643
:1006A0000223324F3F6807F00C0121B1042905D025
:1006B000082937D105E02E4F076036E02D4F07603F
:1006C00033E02A4F3F1F3F68C7F38056274F3F1F35
:1006D0003F6807F03F036EB1264FB7FBF3F7DFF833
:1006E0008CC0ACF1040CDCF800C0CCF3881C07FB18
:1006F0000CF40CE01E4FB7FBF3F7DFF870C0ACF161
:10070000040CDCF800C0CCF3881C07FB0CF4174F7A
:100710003F1F3F68C7F301477F1C7D00B4FBF5F71F
:10072000076002E0124F076000BF00BF0F4F3F6835
:1007300007F0F0010909104F7A5C0768D74047605D
:100740000A4F3F6807F4E051890A0B4F7A5C47680B
:10075000D7408760054F3F6807F46041490B064F5B
:100760007A5C4768D740C760F0BD00000838024097
:100770000024F40000127A002200002070470000DC
:100780000CB50020019000903448006840F480309F
:100790003249086000BF3148006800F40030009022
:1007A0000198401C0190009818B90198B0F5A04F2D
:1007B000F1D12A48006800F4003010B10120009007
:1007C00001E0002000900098012846D123484030E5
:1007D000006840F08050214940310860204800689E
:1007E00040F440401E4908601C48083000681B491E
:1007F000083108600846006840F400400860084678
:10080000006840F4A05008601648091F0860081FDF
:10081000006840F08070091F086000BF0F48006842
:1008200000F000700028F9D040F205700E49086011
:100830000A480830006820F00300084908310860C1
:100840000846006840F00200086000BF0348083016
:10085000006800F00C000828F8D10CBD00380240F8
:100860000070004008544007003C0240042808D1B2
:100870004FF0E021096941F004014FF0E0221161DD
:1008800007E04FF0E021096921F004014FF0E02278
:10089000116170477047000010B51548006840F4BA
:1008A0007000134908601348006840F001001149C6
:1008B000086000200F49083108600E4800680E49A2
:1008C00008400C4908600D48091D0860081F0068B1
:1008D00020F48020091F0860002006490C310860C0
:1008E000FFF74EFF4FF0006001498039086010BDEE
:1008F00088ED00E000380240FFFFF6FE10300024D3
:1009000030B58BB004460D4601210220FFF7A2FE50
:1009100001210846FFF78EFE022206213248FFF72A
:100920003CFD4020099002208DF8280003208DF81E
:10093000290000208DF82A0001208DF82B0009A93C
:100940002948FFF7E2FC022207212748FFF725FD8F
:100950008020099002208DF8280003208DF82900BE
:1009600000208DF82A0001208DF82B0009A91E48CF
:10097000FFF7CBFCA8B2ADF818000020ADF81A00C4
:100980000794ADF8200006A9184800F06FFA60201F
:10099000ADF804000120ADF806000220ADF810000B
:1009A00001A9124800F00EF90821104800F048F99A
:1009B0006020ADF804000120ADF806000220ADF87B
:1009C000100001A9094800F045F90821074800F086
:1009D00093F90121054800F0DDF80121034800F0FA
:1009E000E5F80BB030BD00000000024000040040FC
:1009F00030B58BB004460D4601210420FFF72AFED6
:100A000001210220FFF716FE01210820FFF712FE48
:100A1000022208215C48FFF7C0FC4FF48070099067
:100A200002208DF8280003208DF8290000208DF881
:100A30002A0001208DF82B0009A95348FFF765FC17
:100A4000022209215048FFF7A8FC4FF400700990DA
:100A500002208DF8280003208DF8290000208DF851
:100A60002A0001208DF82B0009A94748FFF74DFC0B
:100A700002220C214548FFF790FC4FF4805009906A
:100A800002208DF8280003208DF8290000208DF821
:100A90002A0001208DF82B0009A93C48FFF735FCFE
:100AA00002220D213948FFF778FC4FF400500990DD
:100AB00002208DF8280003208DF8290000208DF8F1
:100AC0002A0001208DF82B0009A93048FFF71DFCF2
:100AD000A8B2ADF818000020ADF81A000794ADF8E0
:100AE000200006A92A4800F0C1F96020ADF80400F2
:100AF0000120ADF806000220ADF8100001A924483D
:100B000000F060F80821224800F09AF86020ADF863
:100B100004000120ADF806000220ADF8100001A984
:100B20001B4800F097F80821194800F0E5F860200C
:100B3000ADF804000120ADF806000220ADF8100069
:100B400001A9134800F0E6F80821114800F032F935
:100B50006020ADF804000120ADF806000220ADF8D9
:100B6000100001A90A4800F02FF90821084800F0F8
:100B700067F90121064800F00DF80121044800F052
:100B800015F80BB030BD000000040240000C02401C
:100B90000008004021B1028842F08002028004E097
:100BA00002884FF67F731A400280704721B1028895
:100BB00042F00102028004E002884FF6FE731A4000
:100BC0000280704770B5002400220023058C4FF688
:100BD000FE7635400584028C8388048B4FF68F7532
:100BE0002C40B51E2C400D882C43751E2A408D8943
:100BF0002A434D882A43104DA84202D00F4DA842E7
:100C000013D14FF6F7752A40CD892A434FF6FB756D
:100C10002A408D882A434FF6FF652B404FF6FF553B
:100C20002B400D8A2B434D8A2B43838004838D6890
:100C30004563028470BD00000000014000040140D3
:100C40000A460021018B4FF6F773194011430183C7
:100C50007047000070B5002400220023058C4FF679
:100C6000EF7635400584028C8388048B48F6FF7547
:100C70002C404FF6FF452C400D884FF6FF7606EAD4
:100C800005252C434FF6DF752A408D8906EA0515A8
:100C90002A434D8806EA05152A43154DA84202D07D
:100CA000144DA8421DD14FF67F752A40CD894FF6CD
:100CB000FF7606EA05152A434FF6BF752A408D8850
:100CC00006EA05152A434FF6FF352B404FF2FF7514
:100CD0002B400D8A06EA85052B434D8A06EA8505D9
:100CE0002B43838004838D688563028470BD00007C
:100CF00000000140000401400A460021018B4FF230
:100D0000FF7319404FF6FF7303EA0223194301836F
:100D10007047000070B5002400220023058C4FF6B8
:100D2000FF6635400584028C8388848B4FF68F756F
:100D30002C404FF6FC752C400D882C434FF6FF5588
:100D40002A408D894FF6FF7606EA05252A434D880D
:100D500006EA05252A43154DA84202D0144DA842A3
:100D60001DD14FF2FF752A40CD894FF6FF7606EA76
:100D700005252A434FF6FF352A408D8806EA0525CA
:100D80002A434EF6FF752B404DF6FF752B400D8A1A
:100D900006EA05152B434D8A06EA05152B43838089
:100DA00084838D68C563028470BD0000000001402B
:100DB000000401400A460021818B4FF6F773194069
:100DC000114381837047000070B500220023002486
:100DD000058C4EF6FF7635400584038C8488828B23
:100DE00048F6FF752A404FF6FF452A400D884FF61A
:100DF000FF7606EA05252A434DF6FF752B408D89BF
:100E000006EA05352B434D8806EA05352B430A4D86
:100E1000A84202D0094DA84208D14BF6FF752C40DC
:100E20000D8A4FF6FF7606EA85152C43848082836F
:100E30008D680564038470BD00000140000401401A
:100E40000A460021818B4FF2FF7319404FF6FF7362
:100E500003EA02231943818370474163704781632A
:100E60007047C16370470164704700000022028828
:100E7000184B98420ED0184B98420BD0B0F1804FCF
:100E800008D0164B984205D0154B984202D0154B0E
:100E9000984204D14FF68F731A404B881A43124B75
:100EA000984207D0114B984204D04FF6FF431A40A6
:100EB0000B891A4302804B68C3620B880385054B7C
:100EC000984202D0044B984201D18B7A03860123C9
:100ED000838270470000014000040140000400408C
:100EE00000080040000C00400010004000140040CA
:100EF00070B5002540F22551974800F08FF9002881
:100F000076D0954800F044FAC6B2944894490968EE
:100F100040F821609348007807286AD2DFE800F0A3
:100F2000041B435670ABE0008C488D49096850F8AB
:100F3000210050B98B480078401C8A4908708848C5
:100F40000068401C8649086004E00020854908705C
:100F500083490860FEE081488149096850F8210012
:100F6000532808D103207F4908707D480068401C41
:100F70007B49086016E079487949096850F82100F2
:100F800052280AD177480078401C76490870744886
:100F90000068401C7249086004E000207149087034
:100FA0006F490860D6E06D486D49096850F8210026
:100FB000552805D100206B4908706949086004E094
:100FC00000206849087066490860C3E063486449C6
:100FD000096850F8210054280CD162480078401C60
:100FE000604908705E480068401C5D49086006E082
:100FF000B1E0A9E000205B49087059490860A9E008
:1010000056485749096830F82100C0F3470056494F
:10101000087008460078401E4000401C5349087084
:101020005148007800280EDD4F48007809280ADA78
:101030004C480078401C4B49087049480068401CE7
:101040004749086016E045484549096850F82100BD
:1010500001280AD143480078401C424908704048A2
:101060000068401C3E49086004E000203D490870CB
:101070003B4908606EE03C4800784000801D3849DC
:101080000968884205D037480078401C3549087007
:1010900020E033480068401E304951F82000012804
:1010A00009D108462E49096850F8210018B90120D5
:1010B0002F4908700EE02C480078002805DD2948EB
:1010C0000078401C2749087004E00020254908707A
:1010D0002349086022480068401C2149086039E023
:1010E0002248007850B11E480068401C1C49086026
:1010F0001E480078401E1D49087024E0002407E0C7
:10110000E01C164911F820002844C5B2601CC4B286
:10111000154800784000A042F2DA104810490968EA
:1011200050F82100A8420BD101201249087000207C
:101130000C4908700A49086001200F49087002E054
:1011400001200C49087005E0002006490870044998
:10115000086000BF00BF70BD0010014034000020D7
:1011600000000020180000200F00002019000020BF
:101170000E0000201A0000201100002010B540F2DF
:1011800025511D4800F04AF810B31B4800F000F943
:10119000C4B21A48008800F40040C8B91748008853
:1011A00000F4804060B10A2C03D00020134908806D
:1011B00021E01248008840F40040104908801AE0FD
:1011C0000D2C06D10D48008840F480400B49088062
:1011D00011E00A480088C0F30D0009490C54074883
:1011E0000088401C0549088008460088B0F5C87F83
:1011F00001DB0020088010BD0044004020000020DA
:101200004C02002021B1828942F40052828104E024
:1012100082894DF6FF731A408281704770B502468D
:10122000002400230025002040F66A16B14200D1B8
:1012300000BFC1F3421501F01F03012606FA03F3B4
:10124000012D02D19689334006E0022D02D1168A83
:10125000334001E0968A33400C12012606FA04F46A
:101260001688344013B10CB1012000E0002070BD9D
:10127000F0B50346002400260025002040F66A173A
:10128000B94200D100BF1846C1F3421401F01F0655
:10129000012707FA06F5012C01D10C3004E0022CDD
:1012A00001D1103000E014301AB107682F430760F5
:1012B00002E00768AF430760F0BD00002DE9FF477B
:1012C00005460E460024A14600BFA046B08900B1E5
:1012D00000BF2C8A24F44054F08804432C82AC894B
:1012E00041F20C608443B088318908437189084316
:1012F0000443AC81AC8A24F44074B0890443AC82CA
:101300006846FFF7C7F92048854202D01F4885424A
:1013100002D1DDF80C9001E0DDF80890A88900F416
:10132000004040B109EBC90000EB091031684900E9
:10133000B0FBF1F707E009EBC90000EB09103168D9
:101340008900B0FBF1F76420B7FBF0F0040120093D
:10135000642101FB1078A88900F4004040B13220DC
:1013600000EBC800B0FBF1F000F00700044308E018
:10137000322000EB08106421B0FBF1F000F00F0008
:1013800004432C81BDE8FF87001001400014014098
:1013900001468888C0F30800704700BFFEE70000E0
:1013A00000B587B001211020FFF764F9012108463C
:1013B000FFF740F9072209212D48FEF7EEFF07222B
:1013C0000A212B48FEF7E9FF4FF400700590022038
:1013D0008DF8180000208DF81A0001208DF81B00F0
:1013E00003208DF8190005A92148FEF78EFF4FF460
:1013F0008060059002208DF8180000208DF81A00FA
:1014000001208DF81B0003208DF8190005A918484C
:10141000FEF77BFF4FF4165001900020ADF810004E
:101420000C20ADF80E000020ADF80C00ADF80A005D
:10143000ADF8080001A90F48FFF740FF01210D4852
:10144000FFF7E0FE012240F225510A48FFF710FFA6
:1014500025208DF8000001208DF803008DF8010093
:101460008DF802006846FFF79DF807B000BD000048
:101470000000024000100140014600BF704700001C
:1014800000B59BB0002019901890179016901590F9
:10149000149013901290119010900F900E900D9048
:1014A0000C900B900A9009900890012007900690EC
:1014B000059004900390029001901A9069E0022137
:1014C0001A9801EB4000FE4951F820000A2829D162
:1014D00004211A9801EB4000F94951F8200009282D
:1014E00020D11998401CC0B219901998072817D21A
:1014F000DFE800F01604070A0D1013001A980E908A
:101500000FE01A980D900CE01A980C9009E01A98C8
:101510000B9006E01A980A9003E01A98099000E0F0
:1015200000BF32E002211A9801EB4000E44951F873
:101530002000092829D104211A9801EB4000E04934
:1015400051F820000A2820D11898401CC0B21890E9
:101550001898072817D2DFE800F01604070A0D10C4
:1015600013001A9815900FE01A9814900CE01A982E
:10157000139009E01A98129006E01A98119003E06F
:101580001A98109000E000BF00BF1A98401CC0B22B
:101590001A901A980A2892DBC94800690A2841F073
:1015A0000A800E98A0B9002017900CE01798401CF4
:1015B000032101EB4000C0B2009002F0AFFB17988E
:1015C000401CC0B21790BF49097817988842EDDDDA
:1015D0000E98002865D00D98002862D1159898B112
:1015E000002017900CE01798401C032101EB4000ED
:1015F000C0B2009002F092FB1798401CC0B2179046
:101600000E9917988842EEDB1598A0B3149890BBFA
:10161000002017900CE01798401C032101EB4000BC
:10162000C0B2009002F07AFB1798401CC0B217902D
:101630000E9917988842EEDB0E98169011E01698D6
:10164000401C032101EB4000C0B2009002F064FA9C
:101650009D4800780799084007901698401CC0B232
:101660001690DDE915108842E9DB0798012818D1AA
:101670001598179010E014E01798401C032101EB17
:101680004000C0B2009002F049FB00208E49087073
:101690001798401CC0B217908A4909781798884259
:1016A000EADB0D9800287DD00C9800287AD1159897
:1016B000B8B31498A8BB002017900FE01798401CEF
:1016C000032101EB4000C0B2009002F027FB002094
:1016D0007D4908701798401CC0B217900E99179852
:1016E0008842EBDB0E98169011E01698401C0321FF
:1016F00001EB4000C0B2009002F00EFA7248007890
:101700000799084007901698401CC0B21690DDE972
:1017100015108842E9DB0798012817D11598179012
:1017200010E013E01798401C032101EB4000C0B209
:10173000009002F0F3FA0020634908701798401CEB
:10174000C0B217900D9917988842EBDB14980028C7
:101750007ED0139800287BD117900CE01798401C7E
:10176000032101EB4000C0B2009002F0D7FA1798B5
:10177000401CC0B217900E9917988842EEDB0E9865
:10178000169013E01698401C032101EB4000C0B2F4
:10179000009002F0C1F94C48007807990840079082
:1017A000169800E054E0401CC0B21690DDE9151018
:1017B0008842E7DB0798012816D1159817900FE0AB
:1017C0001798401C032101EB4000C0B2009002F0CA
:1017D000A5FA00203C4908701798401CC0B2179029
:1017E0000D9917988842EBDB0D98169011E016982A
:1017F000401C032101EB4000C0B2009002F08CF9C4
:10180000314800780699084006901698401CC0B2EE
:101810001690149916988842E9DB0698012817D18A
:10182000149817900FE01798401C032101EB40001B
:10183000C0B2009002F072FA002023490870179895
:10184000401CC0B217901F49097817988842EADBFC
:101850000C98002877D00B98002874D11498002891
:1018600072D0139800286FD117900FE01798401C82
:10187000032101EB4000C0B2009002F04FFA0020BB
:10188000114908701798401CC0B217900E9917980C
:101890008842EBDB0E98169011E01698401C03214D
:1018A00001EB4000C0B2009002F036F90648007823
:1018B0000799084007901698401CC0B2169005E0A2
:1018C000340000200F00002010000020DDE915107A
:1018D0008842E2DB0798012816D1159817900FE08F
:1018E0001798401C032101EB4000C0B2009002F0A9
:1018F00015FA0020F74908701798401CC0B21790DD
:101900000D9917988842EBDB0D98169011E0169808
:10191000401C032101EB4000C0B2009002F0FCF833
:10192000EC4800780699084006901698401CC0B212
:101930001690149916988842E9DB0698012818D168
:101940001498179011E095E013E01798401C0321BC
:1019500001EB4000C0B2009002F0E0F90020DD4948
:1019600008701798401CC0B217900C9917988842BD
:10197000EBDB139800287DD0129800287AD11790BD
:101980000FE01798401C032101EB4000C0B200900B
:1019900002F0C4F90020CF4908701798401CC0B26B
:1019A00017900E9917988842EBDB0E98169011E06D
:1019B0001698401C032101EB4000C0B2009002F0D9
:1019C000ABF8C44800780799084007901698401C67
:1019D000C0B21690DDE915108842E9DB07980128AE
:1019E00016D1159817900FE01798401C032101EBB2
:1019F0004000C0B2009002F091F90020B549087093
:101A00001798401CC0B217900D9917988842EBDBCD
:101A10000D98169011E01698401C032101EB400030
:101A2000C0B2009002F078F8AA4800780699084001
:101A300006901698401CC0B21690149916988842C9
:101A4000E9DB0698012818D1149817900FE0179831
:101A5000401C032101EB4000C0B2009002F05EF98F
:101A600000209C4908701798401CC0B217900C9930
:101A7000179800E035E08842E9DB0C98169011E0F9
:101A80001698401C032101EB4000C0B2009002F008
:101A900043F8904800780599084005901698401C36
:101AA000C0B21690139916988842E9DB0598012870
:101AB00017D1139817900FE01798401C032101EBE2
:101AC0004000C0B2009002F029F90020814908705E
:101AD0001798401CC0B217907F4909781798884220
:101AE000EADB0B98002870D00A9800286DD1139873
:101AF00000286BD01298002868D117900FE0179833
:101B0000401C032101EB4000C0B2009002F006F936
:101B10000020704908701798401CC0B217900E99A9
:101B200017988842EBDB0E98169011E01698401C2F
:101B3000032101EB4000C0B2009001F0EDFF6548C9
:101B400000780799084007901698401CC0B216907C
:101B5000DDE915108842E9DB0798012816D11598B0
:101B600017900FE01798401C032101EB4000C0B212
:101B7000009002F0D3F80020564908701798401CD6
:101B8000C0B217900D9917988842EBDB0D9816900C
:101B900011E01698401C032101EB4000C0B20090F8
:101BA00001F0BAFF4B480078069908400690169855
:101BB000401CC0B21690149916988842E9DB06982A
:101BC000012818D11498179011E0BAE046E0179850
:101BD000401C032101EB4000C0B2009002F09EF8CF
:101BE00000203C4908701798401CC0B217900C990F
:101BF00017988842EBDB0C98169011E01698401C61
:101C0000032101EB4000C0B2009001F085FF314894
:101C100000780599084005901698401CC0B21690AF
:101C2000139916988842E9DB0598012816D1139874
:101C300017900FE01798401C032101EB4000C0B241
:101C4000009002F06BF80020224908701798401CA1
:101C5000C0B217900B9917988842EBDB12980028B6
:101C60006FD0119800286CD117900FE01798401C86
:101C7000032101EB4000C0B2009002F04FF80020B9
:101C8000144908701798401CC0B217900E99179805
:101C90008842EBDB0E98169011E01698401C032149
:101CA00001EB4000C0B2009001F036FF0948007817
:101CB0000799084007901698401CC0B21690DDE9BD
:101CC00015108842E9DB079801281BD11598179059
:101CD00014E00000100000200F0000201798401CA6
:101CE000032101EB4000C0B2009002F017F8002081
:101CF000FE4908701798401CC0B217900D991798AC
:101D00008842EBDB0D98169011E01698401C0321D9
:101D100001EB4000C0B2009001F0FEFEF3480078F5
:101D20000699084006901698401CC0B21690149967
:101D300016988842E9DB0698012817D11498179065
:101D400010E07AE01798401C032101EB4000C0B27C
:101D5000009001F0E3FF0020E44908701798401C50
:101D6000C0B217900C9917988842EBDB0C9816902C
:101D700011E01698401C032101EB4000C0B2009016
:101D800001F0CAFED94800780599084005901698D8
:101D9000401CC0B21690139916988842E9DB05984A
:101DA000012816D1139817900FE01798401C0321B3
:101DB00001EB4000C0B2009001F0B0FF0020CB4921
:101DC00008701798401CC0B217900B99179888425A
:101DD000EBDB0B98169011E01698401C032101EBE9
:101DE0004000C0B2009001F097FEC048007804990E
:101DF000084004901698401CC0B21690129916988C
:101E00008842E9DB0498012817D1129817900FE057
:101E10001798401C032101EB4000C0B2009001F074
:101E20007DFF0020B14908701798401CC0B2179080
:101E3000AF49097817988842EADB0A98002870D0E1
:101E4000099800286DD1129800286BD011980028AD
:101E500068D117900FE01798401C032101EB400058
:101E6000C0B2009001F05AFF0020A04908701798F6
:101E7000401CC0B217900E9917988842EBDB0E9861
:101E8000169011E01698401C032101EB4000C0B2EF
:101E9000009001F041FE95480078079908400790AE
:101EA0001698401CC0B21690DDE915108842E9DB97
:101EB0000798012816D1159817900FE01798401C25
:101EC000032101EB4000C0B2009001F027FF002089
:101ED000864908701798401CC0B217900D99179842
:101EE0008842EBDB0D98169011E01698401C0321F8
:101EF00001EB4000C0B2009001F00EFE7B4800787C
:101F00000699084006901698401CC0B21690149985
:101F100016988842E9DB0698012818D11498179082
:101F200011E0C9E046E01798401C032101EB400096
:101F3000C0B2009001F0F2FE00206C4908701798C2
:101F4000401CC0B217900C9917988842EBDB0C9894
:101F5000169011E01698401C032101EB4000C0B21E
:101F6000009001F0D9FD614800780599084005907E
:101F70001698401CC0B21690139916988842E9DB57
:101F80000598012816D1139817900FE01798401C58
:101F9000032101EB4000C0B2009001F0BFFE002021
:101FA000524908701798401CC0B217900B991798A7
:101FB0008842EBDB119800287ED0109800287BD156
:101FC00017900FE01798401C032101EB4000C0B2AE
:101FD000009001F0A3FE0020444908701798401CAF
:101FE000C0B217900E9917988842EBDB0E981690A6
:101FF00011E01698401C032101EB4000C0B2009094
:1020000001F08AFD39480078079908400790169832
:10201000401CC0B21690DDE915108842E9DB079834
:10202000012816D1159817900FE01798401C03212E
:1020300001EB4000C0B2009001F070FE00202B497F
:1020400008701798401CC0B217900D9917988842D5
:10205000EBDB0D98169011E01698401C032101EB64
:102060004000C0B2009001F057FD2048007806996A
:10207000084006901698401CC0B216901499169805
:102080008842E9DB0698012818D1149817900FE0D0
:102090001798401C032101EB4000C0B2009001F0F2
:1020A0003DFE0020114908701798401CC0B21790DF
:1020B0000C991798884200E06CE0E9DB0C981690C8
:1020C00011E01698401C032101EB4000C0B20090C3
:1020D00001F022FD05480078059908400590169802
:1020E000401CC0B216901399169803E0100000200F
:1020F0000F0000208842E4DB0598012816D11398D0
:1021000017900FE01798401C032101EB4000C0B26C
:10211000009001F003FE0020FE4908701798401C53
:10212000C0B217900B9917988842EBDB0B9816906A
:1021300011E01698401C032101EB4000C0B2009052
:1021400001F0EAFCF34800780499084004901698DE
:10215000401CC0B21690129916988842E9DB049888
:10216000012817D1129817900FE01798401C0321EF
:1021700001EB4000C0B2009001F0D0FD0020E54925
:1021800008701798401CC0B21790E3490978179857
:102190008842EADB0998002801F058841198002849
:1021A0007ED0109800287BD117900FE01798401C24
:1021B000032101EB4000C0B2009001F0AFFD002010
:1021C000D44908701798401CC0B217900E99179800
:1021D0008842EBDB0E98169011E01698401C032104
:1021E00001EB4000C0B2009001F096FCC9480078B5
:1021F0000799084007901698401CC0B21690DDE978
:1022000015108842E9DB0798012816D11598179018
:102210000FE01798401C032101EB4000C0B2009072
:1022200001F07CFD0020BB4908701798401CC0B22B
:1022300017900D9917988842EBDB0D98169011E0D6
:102240001698401C032101EB4000C0B2009001F041
:1022500063FCB04800780699084006901698401C28
:10226000C0B21690149916988842E9DB06980128A6
:1022700018D1149817900FE01798401C032101EB18
:102280004000C0B2009001F049FD0020A149087053
:102290001798401CC0B217900C991798884200E01C
:1022A00066E0E9DB0C98169011E01698401C0321BB
:1022B00001EB4000C0B2009001F02EFC9548007880
:1022C0000599084005901698401CC0B216901399C5
:1022D00016988842E9DB0598012816D113981790C3
:1022E0000FE01798401C032101EB4000C0B20090A2
:1022F00001F014FD0020874908701798401CC0B2F7
:1023000017900B9917988842EBDB0B98169011E009
:102310001698401C032101EB4000C0B2009001F070
:10232000FBFB7C4800780499084004901698401CF8
:10233000C0B21690129916988842E9DB04980128D9
:1023400016D1129817900FE01798401C032101EB4B
:102350004000C0B2009001F0E1FC00206D4908701F
:102360001798401CC0B217900A9917988842EBDB67
:102370001098002801F06A83002017900FE017984A
:10238000401C032101EB4000C0B2009001F0C6FCEC
:102390000020604908701798401CC0B217900E9931
:1023A00017988842EBDB0E98169011E01698401CA7
:1023B000032101EB4000C0B2009001F0ADFB554895
:1023C00000780799084007901698401CC0B21690F4
:1023D000DDE915108842E9DB0798012816D1159828
:1023E00017900FE01798401C032101EB4000C0B28A
:1023F000009001F093FC0020464908701798401C9B
:10240000C0B217900D9917988842EBDB0D98169083
:1024100011E01698401C032101EB4000C0B200906F
:1024200001F07AFB3B480078069908400690169820
:10243000401CC0B21690149916988842E9DB0698A1
:10244000012816D1149817900FE01798401C03210B
:1024500001EB4000C0B2009001F060FC00202D496B
:1024600008701798401CC0B217900C9917988842B2
:10247000EBDB0C98169011E01698401C032101EB41
:102480004000C0B2009001F047FB22480078059957
:10249000084005901698401CC0B2169013991698E3
:1024A0008842E9DB0598012816D1139817900FE0B0
:1024B0001798401C032101EB4000C0B2009001F0CE
:1024C0002DFC0020134908701798401CC0B21790CB
:1024D0000B9917988842EBDB0B98169011E0169831
:1024E000401C032101EB4000C0B2009001F014FB3E
:1024F000084800780499084004901698401CC0B21F
:102500001690129916988842E9DB049801281BD18D
:10251000129803E0100000200F00002017900FE039
:102520001798401C032101EB4000C0B2009001F05D
:10253000F5FB0020FE4908701798401CC0B21790A8
:102540000A9917988842EBDB0A98169011E01698C2
:10255000401C032101EB4000C0B2009001F0DCFA06
:10256000F34800780399084003901698401CC0B2C5
:102570001690119916988842E9DB0398012841F0DA
:102580006582119817900FE01798401C032101EB0A
:102590004000C0B2009001F0C1FB0020E449087087
:1025A0001798401CC0B21790E249097817988842E2
:1025B000EADB01F04BBAE04800690928F9D10E982E
:1025C000B8BB1598A8B3149898BB0020169011E0DA
:1025D0001698401C032101EB4000C0B2009001F0AE
:1025E0009BFAD34800780799084007901698401C3A
:1025F000C0B21690DDE915108842E9DB0798012882
:1026000017D1159817900FE01798401C032101EB84
:102610004000C0B2009001F081FB0020C449087066
:102620001798401CC0B21790C24909781798884281
:10263000EADB0E98F0B30D98E0BB1598A0B31498A0
:1026400090BB0020169011E01698401C032101EB6E
:102650004000C0B2009001F05FFAB54800780799D9
:10266000084007901698401CC0B21690DDE915107E
:102670008842E9DB0798012816D1159817900FE0DA
:102680001798401C032101EB4000C0B2009001F0FC
:1026900045FB0020A64908701798401CC0B217904F
:1026A0000E9917988842EBDB149818B1139808B963
:1026B000002000E065E0169011E01698401C032110
:1026C00001EB4000C0B2009001F026FA9848007873
:1026D0000799084007901698401CC0B21690DDE993
:1026E00015108842E9DB0798012816D11598179034
:1026F0000FE01798401C032101EB4000C0B200908E
:1027000001F00CFB00208A4908701798401CC0B2E9
:1027100017900E9917988842EBDB0E98169011E0EF
:102720001698401C032101EB4000C0B2009001F05C
:10273000F3F97F4800780699084006901698401CE7
:10274000C0B21690149916988842E9DB06980128C1
:1027500017D1149817900FE01798401C032101EB34
:102760004000C0B2009001F0D9FA00207049087012
:102770001798401CC0B217906E4909781798884284
:10278000EADB0D98D8B30C98C8BB1498C0B3139863
:10279000B0BB0020169011E01698401C032101EBFD
:1027A0004000C0B2009001F0B7F961480078079985
:1027B000084007901698401CC0B21690DDE915102D
:1027C0008842E9DB0798012816D1159817900FE089
:1027D0001798401C032101EB4000C0B2009001F0AB
:1027E0009DFA0020524908701798401CC0B21790FB
:1027F0000E9917988842EBDB0E98169013E06AE06A
:102800002FE01698401C032101EB4000C0B200905D
:1028100001F082F94648007806990840069016981B
:10282000401CC0B21690149916988842E9DB0698AD
:10283000012816D1149817900FE01798401C032117
:1028400001EB4000C0B2009001F068FA0020384966
:1028500008701798401CC0B217900D9917988842BD
:10286000EBDB1398B8B31298A8BB0020169011E0C8
:102870001698401C032101EB4000C0B2009001F00B
:102880004BF92B4800780799084007901698401C90
:10289000C0B21690DDE915108842E9DB07980128DF
:1028A00016D1159817900FE01798401C032101EBE3
:1028B0004000C0B2009001F031FA00201C490870BD
:1028C0001798401CC0B217900E9917988842EBDBFE
:1028D0000E98169012E06AE01698401C032101EB56
:1028E0004000C0B2009001F017F911480078069935
:1028F000084006901698401CC0B21690149916987D
:102900008842E9DB069801281DD11498179016E03B
:102910001798401C032101EB4000C0B2009001F069
:10292000FDF90020024908701798401CC0B205E06C
:10293000100000200F0000203400002017900D9997
:1029400017988842E4DB0D98169011E01698401C09
:10295000032101EB4000C0B2009001F0DDF8FE4819
:1029600000780599084005901698401CC0B2169052
:10297000139916988842E9DB0598012817D1139816
:1029800017900FE01798401C032101EB4000C0B2E4
:10299000009001F0C3F90020EF4908701798401C1F
:1029A000C0B21790ED49097817988842EADB0C9875
:1029B000002870D00B9800286DD11398B8B31298E6
:1029C000A8BB0020169011E01698401C032101EBD3
:1029D0004000C0B2009001F09FF8DF4800780799EE
:1029E000084007901698401CC0B21690DDE91510FB
:1029F0008842E9DB0798012816D1159817900FE057
:102A00001798401C032101EB4000C0B2009001F078
:102A100085F90020D04908701798401CC0B2179063
:102A20000E9917988842EBDB0E98169012E063E03F
:102A30001698401C032101EB4000C0B2009001F049
:102A40006BF8C54800780699084006901698401C17
:102A5000C0B21690149916988842E9DB06980128AE
:102A600016D1149817900FE01798401C032101EB22
:102A70004000C0B2009001F051F90020B649087042
:102A80001798401CC0B217900D9917988842EBDB3D
:102A90000D98169012E069E01698401C032101EB96
:102AA0004000C0B2009001F037F8AB4800780599BB
:102AB000084005901698401CC0B2169013991698BD
:102AC0008842E9DB0598012816D1139817900FE08A
:102AD0001798401C032101EB4000C0B2009001F0A8
:102AE0001DF900209C4908701798401CC0B217902F
:102AF0000C9917988842EBDB1298B8B31198A8BBD1
:102B00000020169011E01698401C032101EB4000B4
:102B1000C0B2009001F000F88F4800780799084093
:102B200007901698401CC0B21690DDE91510884237
:102B3000E9DB0798012816D1159817900FE0179830
:102B4000401C032101EB4000C0B2009001F0E6F808
:102B50000020814908701798401CC0B217900E9948
:102B600017988842EBDB0E98169012E096E01698C4
:102B7000401C032101EB4000C0B2009000F0CCFFEC
:102B8000754800780699084006901698401CC0B217
:102B90001690149916988842E9DB0698012816D1F8
:102BA000149817900FE01798401C032101EB400088
:102BB000C0B2009001F0B2F8002067490870179881
:102BC000401CC0B217900D9917988842EBDB0D9806
:102BD000169011E01698401C032101EB4000C0B292
:102BE000009000F099FF5C48007805990840059036
:102BF0001698401CC0B21690139916988842E9DBCB
:102C00000598012816D1139817900FE01798401CCB
:102C1000032101EB4000C0B2009001F07FF80020DA
:102C20004D4908701798401CC0B217900C9917981E
:102C30008842EBDB0C98169011E01698401C03219B
:102C400001EB4000C0B2009000F066FF42480078FF
:102C50000499084004901698401CC0B2169012992E
:102C600016988842E9DB0498012817D1129817902A
:102C70000FE01798401C032101EB4000C0B2009008
:102C800001F04CF80020344908701798401CC0B27D
:102C900017903249097817988842EADB0B98002888
:102CA00075D00A98002872D11298B8B31198A8BBB1
:102CB0000020169011E01698401C032101EB400003
:102CC000C0B2009000F028FF234800780799084020
:102CD00007901698401CC0B21690DDE91510884286
:102CE000E9DB0798012816D1159817900FE017987F
:102CF000401C032101EB4000C0B2009001F00EF82F
:102D00000020154908701798401CC0B217900E9902
:102D100017988842EBDB0E98169012E09BE016980D
:102D2000401C032101EB4000C0B2009000F0F4FE13
:102D3000094800780699084006901698401CC0B2D1
:102D40001690149916988842E9DB069801281BD141
:102D50001498179014E00000100000200F000020CD
:102D60001798401C032101EB4000C0B2009000F016
:102D7000D5FF0020FE4908701798401CC0B217907C
:102D80000D9917988842EBDB0D98169012E09CE0A5
:102D90001698401C032101EB4000C0B2009000F0E7
:102DA000BBFEF34800780599084005901698401C32
:102DB000C0B21690139916988842E9DB059801284D
:102DC00016D1139817900FE01798401C032101EBC0
:102DD0004000C0B2009000F0A1FF0020E44908705C
:102DE0001798401CC0B217900C9917988842EBDBDB
:102DF0000C98169011E01698401C032101EB40003E
:102E0000C0B2009000F088FED948007804990840CC
:102E100004901698401CC0B21690129916988842D9
:102E2000E9DB0498012816D1129817900FE0179843
:102E3000401C032101EB4000C0B2009000F06EFF87
:102E40000020CB4908701798401CC0B217900B990E
:102E500017988842EBDB1198B8B31098A8BB0020F4
:102E6000169011E01698401C032101EB4000C0B2FF
:102E7000009000F051FEBE48007807990840079086
:102E80001698401CC0B21690DDE915108842E9DBA7
:102E90000798012816D1159817900FE01798401C35
:102EA000032101EB4000C0B2009000F037FF00208A
:102EB000AF4908701798401CC0B217900E99179828
:102EC0008842EBDB0E98169012E0C9E01698401C81
:102ED000032101EB4000C0B2009000F01DFEA448A9
:102EE00000780699084006901698401CC0B21690CB
:102EF000149916988842E9DB0698012816D114988F
:102F000017900FE01798401C032101EB4000C0B25E
:102F1000009000F003FF0020954908701798401CAE
:102F2000C0B217900D9917988842EBDB0D98169058
:102F300011E01698401C032101EB4000C0B2009044
:102F400000F0EAFD8A480078059908400590169837
:102F5000401CC0B21690139916988842E9DB059878
:102F6000012816D1139817900FE01798401C0321E1
:102F700001EB4000C0B2009000F0D0FE00207C4980
:102F800008701798401CC0B217900C991798884287
:102F9000EBDB0C98169011E01698401C032101EB16
:102FA0004000C0B2009000F0B7FD7148007804996D
:102FB000084004901698401CC0B2169012991698BA
:102FC0008842E9DB0498012816D1129817900FE087
:102FD0001798401C032101EB4000C0B2009000F0A4
:102FE0009DFE0020624908701798401CC0B21790DF
:102FF0000B9917988842EBDB0B98169011E0169806
:10300000401C032101EB4000C0B2009000F084FDA1
:10301000574800780399084003901698401CC0B2A6
:103020001690119916988842E9DB0398012817D168
:10303000119817900FE01798401C032101EB4000F6
:10304000C0B2009000F06AFE00204949087017984D
:10305000401CC0B217904749097817988842EADBAC
:103060000A98002870D0099800286DD11198B8B33B
:103070001098A8BB0020169011E01698401C032160
:1030800001EB4000C0B2009000F046FD38480078E7
:103090000799084007901698401CC0B21690DDE9C9
:1030A00015108842E9DB0798012816D1159817906A
:1030B0000FE01798401C032101EB4000C0B20090C4
:1030C00000F02CFE00202A4908701798401CC0B25E
:1030D00017900E9917988842EBDB0E98169012E025
:1030E000CEE01698401C032101EB4000C0B20090D6
:1030F00000F012FD1E4800780699084006901698C8
:10310000401CC0B21690149916988842E9DB0698C4
:10311000012816D1149817900FE01798401C03212E
:1031200001EB4000C0B2009000F0F8FD0020104913
:1031300008701798401CC0B217900D9917988842D4
:10314000EBDB0D98169012E0D4E01698401C03219A
:1031500001EB4000C0B2009000F0DEFC04480078B3
:103160000599084005901698401CC0B2169003E0DF
:10317000100000200F000020139916988842E4DB0D
:103180000598012816D1139817900FE01798401C46
:10319000032101EB4000C0B2009000F0BFFD002011
:1031A000FE4908701798401CC0B217900C991798E8
:1031B0008842EBDB0C98169011E01698401C032116
:1031C00001EB4000C0B2009000F0A6FCF34800788C
:1031D0000499084004901698401CC0B216901299A9
:1031E00016988842E9DB0498012816D112981790A6
:1031F0000FE01798401C032101EB4000C0B2009083
:1032000000F08CFD0020E54908701798401CC0B202
:1032100017900B9917988842EBDB0B98169011E0EA
:103220001698401C032101EB4000C0B2009000F052
:1032300073FCDA4800780399084003901698401C04
:10324000C0B21690119916988842E9DB03980128BC
:1032500016D1119817900FE01798401C032101EB2D
:103260004000C0B2009000F059FD0020CB4908702A
:103270001798401CC0B217900A9917988842EBDB48
:103280001098B8B30F98A8BB0020169011E01698BC
:10329000401C032101EB4000C0B2009000F03CFC58
:1032A000BE4800780799084007901698401CC0B2A5
:1032B0001690DDE915108842E9DB0798012816D140
:1032C000159817900FE01798401C032101EB400060
:1032D000C0B2009000F022FD0020B049087017989D
:1032E000401CC0B217900E9917988842EBDB0E98DD
:1032F000169012E0FCE01698401C032101EB400000
:10330000C0B2009000F008FCA4480078069908407C
:1033100006901698401CC0B21690149916988842D0
:10332000E9DB0698012816D1149817900FE017983A
:10333000401C032101EB4000C0B2009000F0EEFC05
:103340000020964908701798401CC0B217900D993C
:1033500017988842EBDB0D98169011E01698401CE8
:10336000032101EB4000C0B2009000F0D5FB8B4878
:1033700000780599084005901698401CC0B2169038
:10338000139916988842E9DB0598012816D11398FD
:1033900017900FE01798401C032101EB4000C0B2CA
:1033A000009000F0BBFC00207C4908701798401C7E
:1033B000C0B217900C9917988842EBDB0C981690C6
:1033C00011E01698401C032101EB4000C0B20090B0
:1033D00000F0A2FB71480078049908400490169808
:1033E000401CC0B21690129916988842E9DB0498E6
:1033F000012816D1129817900FE01798401C03214E
:1034000001EB4000C0B2009000F088FC002063494E
:1034100008701798401CC0B217900B9917988842F3
:10342000EBDB0B98169011E01698401C032101EB82
:103430004000C0B2009000F06FFB5848007803993C
:10344000084003901698401CC0B216901199169827
:103450008842E9DB0398012816D1119817900FE0F4
:103460001798401C032101EB4000C0B2009000F00F
:1034700055FC0020494908701798401CC0B21790AD
:103480000A9917988842EBDB0A98169011E0169873
:10349000401C032101EB4000C0B2009000F03CFB57
:1034A0003E4800780299084002901698401CC0B22D
:1034B0001690109916988842E9DB0298012817D1D6
:1034C000109817900FE01798401C032101EB400063
:1034D000C0B2009000F022FC00203049087017981C
:1034E000401CC0B217902E49097817988842EADB31
:1034F0000998002875D00898002872D110980028E3
:10350000F8D00F980028F8D1169011E01698401CBA
:10351000032101EB4000C0B2009000F0FDFA1F480B
:1035200000780799084007901698401CC0B2169082
:10353000DDE915108842E9DB0798012816D11598B6
:1035400017900FE01798401C032101EB4000C0B218
:10355000009000F0E3FB0020104908701798401C11
:10356000C0B217900E9917988842EBDB0E98169010
:1035700011E01698401C032101EB4000C0B20090FE
:1035800000F0CAFA05480078069908400690169897
:10359000401CC0B216901499169803E01000002049
:1035A0000F0000208842E4DB0698012816D1149809
:1035B00017900FE01798401C032101EB4000C0B2A8
:1035C000009000F0ABFB0020FB4908701798401CEE
:1035D000C0B217900D9917988842EBDB0D981690A2
:1035E00012E000E11698401C032101EB4000C0B23C
:1035F000009000F091FAF048007805990840059095
:103600001698401CC0B21690139916988842E9DBB0
:103610000598012816D1139817900FE01798401CB1
:10362000032101EB4000C0B2009000F077FB0020C6
:10363000E14908701798401CC0B217900C99179870
:103640008842EBDB0C98169011E01698401C032181
:1036500001EB4000C0B2009000F05EFAD64800785E
:103660000499084004901698401CC0B21690129914
:1036700016988842E9DB0498012816D11298179011
:103680000FE01798401C032101EB4000C0B20090EE
:1036900000F044FB0020C84908701798401CC0B2D5
:1036A00017900B9917988842EBDB0B98169011E056
:1036B0001698401C032101EB4000C0B2009000F0BE
:1036C0002BFABD4800780399084003901698401CD7
:1036D000C0B21690119916988842E9DB0398012828
:1036E00016D1119817900FE01798401C032101EB99
:1036F0004000C0B2009000F011FB0020AE490870FD
:103700001798401CC0B217900A9917988842EBDBB3
:103710000A98169011E01698401C032101EB400016
:10372000C0B2009000F0F8F9A34800780299084070
:1037300002901698401CC0B21690109916988842B4
:10374000E9DB0298012816D1109817900FE017981E
:10375000401C032101EB4000C0B2009000F0DEFAF3
:103760000020954908701798401CC0B2179009991D
:1037700017988842EBDB0F98A8B30020169011E051
:103780001698401C032101EB4000C0B2009000F0ED
:10379000C3F9894800780799084007901698401C9B
:1037A000C0B21690DDE915108842E9DB07980128C0
:1037B00016D1159817900FE01798401C032101EBC4
:1037C0004000C0B2009000F0A9FA00207A490870C9
:1037D0001798401CC0B217900E9917988842EBDBDF
:1037E0000E98169012E031E11698401C032101EB6F
:1037F0004000C0B2009000F08FF96F480078069941
:10380000084006901698401CC0B21690149916985D
:103810008842E9DB0698012816D1149817900FE02A
:103820001798401C032101EB4000C0B2009000F04B
:1038300075FA0020604908701798401CC0B21790B4
:103840000D9917988842EBDB0D98169011E01698A9
:10385000401C032101EB4000C0B2009000F05CF975
:10386000554800780599084005901698401CC0B24C
:103870001690139916988842E9DB0598012816D10D
:10388000139817900FE01798401C032101EB40009C
:10389000C0B2009000F042FA002047490870179823
:1038A000401CC0B217900C9917988842EBDB0C981B
:1038B000169011E01698401C032101EB4000C0B2A5
:1038C000009000F029F93C480078049908400490E1
:1038D0001698401CC0B21690129916988842E9DBDF
:1038E0000498012816D1129817900FE01798401CE1
:1038F000032101EB4000C0B2009000F00FFA00205D
:103900002D4908701798401CC0B217900B99179852
:103910008842EBDB0B98169011E01698401C0321AF
:1039200001EB4000C0B2009000F0F6F822480078A9
:103930000399084003901698401CC0B21690119944
:1039400016988842E9DB0398012816D11198179040
:103950000FE01798401C032101EB4000C0B200901B
:1039600000F0DCF90020144908701798401CC0B220
:1039700017900A9917988842EBDB0A98169011E085
:103980001698401C032101EB4000C0B2009000F0EB
:10399000C3F8094800780299084002901698401C24
:1039A000C0B21690109916988842E9DB0298012857
:1039B00018D11098179011E0100000201798401CA3
:1039C000032101EB4000C0B2009000F0A7F90020F5
:1039D0001F4908701798401CC0B217900999179892
:1039E0008842EBDB0998169011E01698401C0321E1
:1039F00001EB4000C0B2009000F08EF8144800784F
:103A00000199084001901698401CC0B216900F9979
:103A100016988842E9DB0298012817D10F98179071
:103A20000FE01798401C032101EB4000C0B200904A
:103A300000F074F90020064908701798401CC0B2C5
:103A400017900449097817988842EADB1BB000BD3B
:103A5000100000200F00002010B504466FF0040095
:103A6000FCF704FFE11704EB5171C1F3C701074AEA
:103A700011701046007800EB4001C1EBC0104FF60A
:103A8000FF7101EAC0000249088010BD1200002049
:103A90001400002070B504464FF4077094FBF0F05A
:103AA000C6B24FF4077094FBF0F100FB114085B2F1
:103AB00005E04FF4077000F009F8701EC6B2002E42
:103AC000F7D115B1284600F001F870BD0146114A42
:103AD00012884A434FF0E0235A6100229A611A4645
:103AE000126942F001021A6100BF4FF0E022106932
:103AF00000F001021AB100F48032002AF5D04FF034
:103B0000E022126922F001024FF0E0231A61002244
:103B10009A6170471400002010B504467A4850F8A6
:103B200024000C2872D2DFE800F0E1061B305B7243
:103B30008497AABDD04501217448FCF751FC58B9BF
:103B40001420FFF7A7FF01217048FCF749FC30B9AA
:103B500001206F49087002E000206D490870D0E034
:103B600001216C48FCF73CFC58B91420FFF792FF88
:103B700001216848FCF734FC30B901206449087021
:103B800002E0002062490870BBE004216148FCF7B4
:103B900027FC58B91420FFF77DFF04215D48FCF78E
:103BA0001FFC30B901205A49087002E00020584932
:103BB0000870A6E004215748FCF712FC01280BD13D
:103BC0001420FFF767FF04215248FCF709FC012885
:103BD00005D14F49087002E000204D49087090E07F
:103BE00004214C48FCF7FCFB01280BD11420FFF703
:103BF00051FF04214748FCF7F3FB012805D1444954
:103C0000087002E00020424908707AE075E04248FE
:103C10000078012809D11420FFF73CFF3E480078C6
:103C2000012805D13A49087002E00020384908709F
:103C300067E03948007802280AD11420FFF72AFFEC
:103C400035480078022806D101203149087002E089
:103C500000202F49087054E02F48007803280AD12B
:103C60001420FFF717FF2C480078032806D1012005
:103C70002749087002E000202549087041E02648E5
:103C8000007804280AD11420FFF704FF22480078A6
:103C9000042806D101201E49087002E000201C49BA
:103CA00008702EE01C48007805280AD11420FFF780
:103CB000F1FE19480078052806D101201449087042
:103CC00002E00020124908701BE01348007848B950
:103CD0001420FFF7DFFE1048007830B901200C49AE
:103CE000087002E000200A4908700AE000BF064898
:103CF000406959305928FAD000BF002004490870A3
:103D000000BF00BF10BD00003400002000040240CE
:103D100010000020000802400D00002010B50446ED
:103D20007E4850F82400401C12287CD2DFE800F0C6
:103D3000CD09111A222E39444F575C61656A7F9272
:103D4000A5B800217648FDF78CF800207549086079
:103D5000E1E000217448FDF780F8002071490C3142
:103D60000860D8E000216E48FDF777F800206F4921
:103D70000860D0E001206D490839086000206C49D6
:103D8000C1F8B80269490C390860C4E04FF4FA710F
:103D90006348FDF766F84FF4FA716148FDF763F880
:103DA000B9E04FF4FA716048FDF757F84FF4FA7133
:103DB0005D48FDF754F8AEE04FF4FA715848FDF74E
:103DC0004CF84FF4FA715648FDF749F8A3E000208B
:103DD0005649083908605649C1F8B8029BE04FF4CB
:103DE000FA70FFF757FE96E04FF47A70FFF752FE35
:103DF00091E0C820FFF74EFE8DE041F28830FFF7DA
:103E000049FE88E000214648FDF72BF84FF4FA718F
:103E10004348FDF728F84FF4FA714348FDF71DF8C1
:103E20000021414800E050E0FDF719F873E04FF43D
:103E3000FA713B48FDF715F800213948FDF713F8F2
:103E400000213948FDF709F84FF4FA713648FDF7BB
:103E500006F860E0C8213248FDF703F84FF4FA7124
:103E60002F48FDF700F84FF4FA712F48FCF7F5FFE3
:103E700000212D48FCF7F3FF4DE000212848FCF716
:103E8000F0FF4FF4FA712648FCF7EDFF4FF4FA719A
:103E90002548FCF7E2FFC8212348FCF7E0FF3AE0A1
:103EA0004FF4FA711E48FCF7DCFF4FF4FA711C481E
:103EB000FCF7D9FF4FF4FA711B48FCF7CEFF4FF423
:103EC000FA711948FCF7CBFF25E04FF4FA7114485A
:103ED000FCF7C7FF4FF4FA711148FCF7C4FF4FF429
:103EE000FA711148FCF7B9FF4FF4FA710E48FCF76C
:103EF000B6FF4FF4FA710A48FCF7AFFF4FF4FA71BE
:103F00000748FCF7ACFF0020084908390860084959
:103F1000C1F8B80200BF00BF10BD0000340000208F
:103F2000000800408C82414200040040BC02424232
:103F30000000424201200D4908600D49C1F8840289
:103F40000A492C310860091D08600A4908600949BE
:103F50000C3108600849086007490C390860091FDE
:103F600008600649C1F8980270470000800240428C
:103F7000000040428C824142BC0242420000424268
:103F800000200D4908600D49C1F884020A492C310E
:103F90000860091D08600A49086009490C31086079
:103FA0000849086007490C390860091F086006497C
:103FB000C1F8980270470000800240420000404271
:103FC0008C824142BC0242420000424210B50020B5
:103FD0000949087000240BE0FFF7D2FF1E20FFF70D
:103FE00059FDFFF7A7FF1E20FFF754FD601CC4B268
:103FF000032CF1DB10BD0000110000204FF4A06085
:10400000FCF70CFBA820FFF727FDFDF7C9F94FF4DB
:10401000165000F023F8FCF719FAFCF75BF9FCF7EF
:10402000EDF9532140F2F310FCF7E2FC532140F28A
:10403000F310FCF765FC0BE006480078012807D177
:1040400005480078012801D1FFF7C0FFFDF718FAF5
:10405000F2E700001A0000201100002010B588B01F
:10406000044601210846FCF7E5FA01214804FCF763
:10407000F1FA072202212248FCF78FF907220321D7
:104080001F48FCF78AF90C20059002208DF81800D3
:104090008DF8190000208DF81A0001208DF81B0002
:1040A00005A91748FCF731F901940020ADF8080084
:1040B000ADF80A00ADF80C00ADF810000C20ADF81A
:1040C0000E0001A90F48FDF7F9F826208DF81C0015
:1040D00000208DF81D0003208DF81E0001208DF8B2
:1040E0001F0007A8FCF75EFA012240F2255105489F
:1040F000FDF7BEF801210348FDF784F808B010BDB4
:1041000000000240004400404FF04070E1EE100A11
:104110007047000034410008000000203400000017
:10412000C401000868410008340000200C0A0000A7
:10413000E001000800000000000000000000000096
:10414000000000000000000000000000000000006F
:104150000000000000000000000001020304010252
:08416000030406070809000032
:040000050800018965
:00000001FF
